{
	"data": {
		"bytecode": {
			"linkReferences": {},
			"object": "608060405234801561000f575f5ffd5b506040518060400160405280600781526020017f506f6b6544494f000000000000000000000000000000000000000000000000008152506040518060400160405280600381526020017f504b440000000000000000000000000000000000000000000000000000000000815250815f908161008a919061031f565b50806001908161009a919061031f565b5050503360075f6101000a81548173ffffffffffffffffffffffffffffffffffffffff021916908373ffffffffffffffffffffffffffffffffffffffff1602179055506103ee565b5f81519050919050565b7f4e487b71000000000000000000000000000000000000000000000000000000005f52604160045260245ffd5b7f4e487b71000000000000000000000000000000000000000000000000000000005f52602260045260245ffd5b5f600282049050600182168061015d57607f821691505b6020821081036101705761016f610119565b5b50919050565b5f819050815f5260205f209050919050565b5f6020601f8301049050919050565b5f82821b905092915050565b5f600883026101d27fffffffffffffffffffffffffffffffffffffffffffffffffffffffffffffffff82610197565b6101dc8683610197565b95508019841693508086168417925050509392505050565b5f819050919050565b5f819050919050565b5f61022061021b610216846101f4565b6101fd565b6101f4565b9050919050565b5f819050919050565b61023983610206565b61024d61024582610227565b8484546101a3565b825550505050565b5f5f905090565b610264610255565b61026f818484610230565b505050565b5b81811015610292576102875f8261025c565b600181019050610275565b5050565b601f8211156102d7576102a881610176565b6102b184610188565b810160208510156102c0578190505b6102d46102cc85610188565b830182610274565b50505b505050565b5f82821c905092915050565b5f6102f75f19846008026102dc565b1980831691505092915050565b5f61030f83836102e8565b9150826002028217905092915050565b610328826100e2565b67ffffffffffffffff811115610341576103406100ec565b5b61034b8254610146565b610356828285610296565b5f60209050601f831160018114610387575f8415610375578287015190505b61037f8582610304565b8655506103e6565b601f19841661039586610176565b5f5b828110156103bc57848901518255600182019150602085019450602081019050610397565b868310156103d957848901516103d5601f8916826102e8565b8355505b6001600288020188555050505b505050505050565b612819806103fb5f395ff3fe608060405234801561000f575f5ffd5b5060043610610109575f3560e01c80636352211e116100a0578063a22cb4651161006f578063a22cb465146102c7578063b88d4fde146102e3578063c87b56dd146102ff578063e985e9c51461032f578063f6b12f281461035f57610109565b80636352211e1461021757806370a0823114610247578063858310791461027757806395d89b41146102a957610109565b806323b872dd116100dc57806323b872dd146101a75780632a0c5221146101c357806342842e0e146101df578063555072de146101fb57610109565b806301ffc9a71461010d57806306fdde031461013d578063081812fc1461015b578063095ea7b31461018b575b5f5ffd5b61012760048036038101906101229190611a77565b61037d565b6040516101349190611abc565b60405180910390f35b61014561045e565b6040516101529190611b45565b60405180910390f35b61017560048036038101906101709190611b98565b6104ed565b6040516101829190611c02565b60405180910390f35b6101a560048036038101906101a09190611c45565b610508565b005b6101c160048036038101906101bc9190611c83565b61051e565b005b6101dd60048036038101906101d89190611cd3565b61061d565b005b6101f960048036038101906101f49190611c83565b6107a4565b005b61021560048036038101906102109190611e3d565b6107c3565b005b610231600480360381019061022c9190611b98565b6108e5565b60405161023e9190611c02565b60405180910390f35b610261600480360381019061025c9190611ec5565b6108f6565b60405161026e9190611eff565b60405180910390f35b610291600480360381019061028c9190611b98565b6109ac565b6040516102a093929190611f18565b60405180910390f35b6102b1610aed565b6040516102be9190611b45565b60405180910390f35b6102e160048036038101906102dc9190611f85565b610b7d565b005b6102fd60048036038101906102f89190612061565b610b93565b005b61031960048036038101906103149190611b98565b610bb8565b6040516103269190611b45565b60405180910390f35b610349600480360381019061034491906120e1565b610c1e565b6040516103569190611abc565b60405180910390f35b610367610cac565b6040516103749190611c02565b60405180910390f35b5f7f80ac58cd000000000000000000000000000000000000000000000000000000007bffffffffffffffffffffffffffffffffffffffffffffffffffffffff1916827bffffffffffffffffffffffffffffffffffffffffffffffffffffffff1916148061044757507f5b5e139f000000000000000000000000000000000000000000000000000000007bffffffffffffffffffffffffffffffffffffffffffffffffffffffff1916827bffffffffffffffffffffffffffffffffffffffffffffffffffffffff1916145b80610457575061045682610cd1565b5b9050919050565b60605f805461046c9061214c565b80601f01602080910402602001604051908101604052809291908181526020018280546104989061214c565b80156104e35780601f106104ba576101008083540402835291602001916104e3565b820191905f5260205f20905b8154815290600101906020018083116104c657829003601f168201915b5050505050905090565b5f6104f782610d3a565b5061050182610dc0565b9050919050565b61051a8282610515610df9565b610e00565b5050565b5f73ffffffffffffffffffffffffffffffffffffffff168273ffffffffffffffffffffffffffffffffffffffff160361058e575f6040517f64a0ae920000000000000000000000000000000000000000000000000000000081526004016105859190611c02565b60405180910390fd5b5f6105a1838361059c610df9565b610e12565b90508373ffffffffffffffffffffffffffffffffffffffff168173ffffffffffffffffffffffffffffffffffffffff1614610617578382826040517f64283d7b00000000000000000000000000000000000000000000000000000000815260040161060e9392919061217c565b60405180910390fd5b50505050565b813373ffffffffffffffffffffffffffffffffffffffff1661063e826108e5565b73ffffffffffffffffffffffffffffffffffffffff1614610694576040517f08c379a000000000000000000000000000000000000000000000000000000000815260040161068b90612221565b60405180910390fd5b8183036106d6576040517f08c379a00000000000000000000000000000000000000000000000000000000081526004016106cd906122af565b60405180910390fd5b5f600684815481106106eb576106ea6122cd565b5b905f5260205f20906003020190505f6006848154811061070e5761070d6122cd565b5b905f5260205f20906003020190508060010154826001015410610766576002826001015f82825461073f9190612327565b925050819055506001816001015f82825461075a9190612327565b9250508190555061079d565b6001826001015f82825461077a9190612327565b925050819055506002816001015f8282546107959190612327565b925050819055505b5050505050565b6107be83838360405180602001604052805f815250610b93565b505050565b60075f9054906101000a900473ffffffffffffffffffffffffffffffffffffffff1673ffffffffffffffffffffffffffffffffffffffff163373ffffffffffffffffffffffffffffffffffffffff1614610852576040517f08c379a0000000000000000000000000000000000000000000000000000000008152600401610849906123ca565b60405180910390fd5b5f6006805490509050600660405180606001604052808681526020016001815260200184815250908060018154018082558091505060019003905f5260205f2090600302015f909190919091505f820151815f0190816108b29190612588565b506020820151816001015560408201518160020190816108d29190612588565b5050506108df838261101d565b50505050565b5f6108ef82610d3a565b9050919050565b5f5f73ffffffffffffffffffffffffffffffffffffffff168273ffffffffffffffffffffffffffffffffffffffff1603610967575f6040517f89c62b6400000000000000000000000000000000000000000000000000000000815260040161095e9190611c02565b60405180910390fd5b60035f8373ffffffffffffffffffffffffffffffffffffffff1673ffffffffffffffffffffffffffffffffffffffff1681526020019081526020015f20549050919050565b600681815481106109bb575f80fd5b905f5260205f2090600302015f91509050805f0180546109da9061214c565b80601f0160208091040260200160405190810160405280929190818152602001828054610a069061214c565b8015610a515780601f10610a2857610100808354040283529160200191610a51565b820191905f5260205f20905b815481529060010190602001808311610a3457829003601f168201915b505050505090806001015490806002018054610a6c9061214c565b80601f0160208091040260200160405190810160405280929190818152602001828054610a989061214c565b8015610ae35780601f10610aba57610100808354040283529160200191610ae3565b820191905f5260205f20905b815481529060010190602001808311610ac657829003601f168201915b5050505050905083565b606060018054610afc9061214c565b80601f0160208091040260200160405190810160405280929190818152602001828054610b289061214c565b8015610b735780601f10610b4a57610100808354040283529160200191610b73565b820191905f5260205f20905b815481529060010190602001808311610b5657829003601f168201915b5050505050905090565b610b8f610b88610df9565b838361103a565b5050565b610b9e84848461051e565b610bb2610ba9610df9565b858585856111a3565b50505050565b6060610bc382610d3a565b505f610bcd61134f565b90505f815111610beb5760405180602001604052805f815250610c16565b80610bf584611365565b604051602001610c06929190612691565b6040516020818303038152906040525b915050919050565b5f60055f8473ffffffffffffffffffffffffffffffffffffffff1673ffffffffffffffffffffffffffffffffffffffff1681526020019081526020015f205f8373ffffffffffffffffffffffffffffffffffffffff1673ffffffffffffffffffffffffffffffffffffffff1681526020019081526020015f205f9054906101000a900460ff16905092915050565b60075f9054906101000a900473ffffffffffffffffffffffffffffffffffffffff1681565b5f7f01ffc9a7000000000000000000000000000000000000000000000000000000007bffffffffffffffffffffffffffffffffffffffffffffffffffffffff1916827bffffffffffffffffffffffffffffffffffffffffffffffffffffffff1916149050919050565b5f5f610d458361142f565b90505f73ffffffffffffffffffffffffffffffffffffffff168173ffffffffffffffffffffffffffffffffffffffff1603610db757826040517f7e273289000000000000000000000000000000000000000000000000000000008152600401610dae9190611eff565b60405180910390fd5b80915050919050565b5f60045f8381526020019081526020015f205f9054906101000a900473ffffffffffffffffffffffffffffffffffffffff169050919050565b5f33905090565b610e0d8383836001611468565b505050565b5f5f610e1d8461142f565b90505f73ffffffffffffffffffffffffffffffffffffffff168373ffffffffffffffffffffffffffffffffffffffff1614610e5e57610e5d818486611627565b5b5f73ffffffffffffffffffffffffffffffffffffffff168173ffffffffffffffffffffffffffffffffffffffff1614610ee957610e9d5f855f5f611468565b600160035f8373ffffffffffffffffffffffffffffffffffffffff1673ffffffffffffffffffffffffffffffffffffffff1681526020019081526020015f205f82825403925050819055505b5f73ffffffffffffffffffffffffffffffffffffffff168573ffffffffffffffffffffffffffffffffffffffff1614610f6857600160035f8773ffffffffffffffffffffffffffffffffffffffff1673ffffffffffffffffffffffffffffffffffffffff1681526020019081526020015f205f82825401925050819055505b8460025f8681526020019081526020015f205f6101000a81548173ffffffffffffffffffffffffffffffffffffffff021916908373ffffffffffffffffffffffffffffffffffffffff160217905550838573ffffffffffffffffffffffffffffffffffffffff168273ffffffffffffffffffffffffffffffffffffffff167fddf252ad1be2c89b69c2b068fc378daa952ba7f163c4a11628f55a4df523b3ef60405160405180910390a4809150509392505050565b611036828260405180602001604052805f8152506116ea565b5050565b5f73ffffffffffffffffffffffffffffffffffffffff168273ffffffffffffffffffffffffffffffffffffffff16036110aa57816040517f5b08ba180000000000000000000000000000000000000000000000000000000081526004016110a19190611c02565b60405180910390fd5b8060055f8573ffffffffffffffffffffffffffffffffffffffff1673ffffffffffffffffffffffffffffffffffffffff1681526020019081526020015f205f8473ffffffffffffffffffffffffffffffffffffffff1673ffffffffffffffffffffffffffffffffffffffff1681526020019081526020015f205f6101000a81548160ff0219169083151502179055508173ffffffffffffffffffffffffffffffffffffffff168373ffffffffffffffffffffffffffffffffffffffff167f17307eab39ab6107e8899845ad3d59bd9653f200f220920489ca2b5937696c31836040516111969190611abc565b60405180910390a3505050565b5f8373ffffffffffffffffffffffffffffffffffffffff163b1115611348578273ffffffffffffffffffffffffffffffffffffffff1663150b7a02868685856040518563ffffffff1660e01b81526004016112019493929190612706565b6020604051808303815f875af192505050801561123c57506040513d601f19601f820116820180604052508101906112399190612764565b60015b6112bd573d805f811461126a576040519150601f19603f3d011682016040523d82523d5f602084013e61126f565b606091505b505f8151036112b557836040517f64a0ae920000000000000000000000000000000000000000000000000000000081526004016112ac9190611c02565b60405180910390fd5b805181602001fd5b63150b7a0260e01b7bffffffffffffffffffffffffffffffffffffffffffffffffffffffff1916817bffffffffffffffffffffffffffffffffffffffffffffffffffffffff19161461134657836040517f64a0ae9200000000000000000000000000000000000000000000000000000000815260040161133d9190611c02565b60405180910390fd5b505b5050505050565b606060405180602001604052805f815250905090565b60605f60016113738461170d565b0190505f8167ffffffffffffffff81111561139157611390611d19565b5b6040519080825280601f01601f1916602001820160405280156113c35781602001600182028036833780820191505090505b5090505f82602001820190505b600115611424578080600190039150507f3031323334353637383961626364656600000000000000000000000000000000600a86061a8153600a85816114195761141861278f565b5b0494505f85036113d0575b819350505050919050565b5f60025f8381526020019081526020015f205f9054906101000a900473ffffffffffffffffffffffffffffffffffffffff169050919050565b80806114a057505f73ffffffffffffffffffffffffffffffffffffffff168273ffffffffffffffffffffffffffffffffffffffff1614155b156115d2575f6114af84610d3a565b90505f73ffffffffffffffffffffffffffffffffffffffff168373ffffffffffffffffffffffffffffffffffffffff161415801561151957508273ffffffffffffffffffffffffffffffffffffffff168173ffffffffffffffffffffffffffffffffffffffff1614155b801561152c575061152a8184610c1e565b155b1561156e57826040517fa9fbf51f0000000000000000000000000000000000000000000000000000000081526004016115659190611c02565b60405180910390fd5b81156115d057838573ffffffffffffffffffffffffffffffffffffffff168273ffffffffffffffffffffffffffffffffffffffff167f8c5be1e5ebec7d5bd14f71427d1e84f3dd0314c0f7b2291e5b200ac8c7c3b92560405160405180910390a45b505b8360045f8581526020019081526020015f205f6101000a81548173ffffffffffffffffffffffffffffffffffffffff021916908373ffffffffffffffffffffffffffffffffffffffff16021790555050505050565b61163283838361185e565b6116e5575f73ffffffffffffffffffffffffffffffffffffffff168373ffffffffffffffffffffffffffffffffffffffff16036116a657806040517f7e27328900000000000000000000000000000000000000000000000000000000815260040161169d9190611eff565b60405180910390fd5b81816040517f177e802f0000000000000000000000000000000000000000000000000000000081526004016116dc9291906127bc565b60405180910390fd5b505050565b6116f4838361191e565b6117086116ff610df9565b5f8585856111a3565b505050565b5f5f5f90507a184f03e93ff9f4daa797ed6e38ed64bf6a1f0100000000000000008310611769577a184f03e93ff9f4daa797ed6e38ed64bf6a1f010000000000000000838161175f5761175e61278f565b5b0492506040810190505b6d04ee2d6d415b85acef810000000083106117a6576d04ee2d6d415b85acef8100000000838161179c5761179b61278f565b5b0492506020810190505b662386f26fc1000083106117d557662386f26fc1000083816117cb576117ca61278f565b5b0492506010810190505b6305f5e10083106117fe576305f5e10083816117f4576117f361278f565b5b0492506008810190505b61271083106118235761271083816118195761181861278f565b5b0492506004810190505b60648310611846576064838161183c5761183b61278f565b5b0492506002810190505b600a8310611855576001810190505b80915050919050565b5f5f73ffffffffffffffffffffffffffffffffffffffff168373ffffffffffffffffffffffffffffffffffffffff161415801561191557508273ffffffffffffffffffffffffffffffffffffffff168473ffffffffffffffffffffffffffffffffffffffff1614806118d657506118d58484610c1e565b5b8061191457508273ffffffffffffffffffffffffffffffffffffffff166118fc83610dc0565b73ffffffffffffffffffffffffffffffffffffffff16145b5b90509392505050565b5f73ffffffffffffffffffffffffffffffffffffffff168273ffffffffffffffffffffffffffffffffffffffff160361198e575f6040517f64a0ae920000000000000000000000000000000000000000000000000000000081526004016119859190611c02565b60405180910390fd5b5f61199a83835f610e12565b90505f73ffffffffffffffffffffffffffffffffffffffff168173ffffffffffffffffffffffffffffffffffffffff1614611a0c575f6040517f73c6ac6e000000000000000000000000000000000000000000000000000000008152600401611a039190611c02565b60405180910390fd5b505050565b5f604051905090565b5f5ffd5b5f5ffd5b5f7fffffffff0000000000000000000000000000000000000000000000000000000082169050919050565b611a5681611a22565b8114611a60575f5ffd5b50565b5f81359050611a7181611a4d565b92915050565b5f60208284031215611a8c57611a8b611a1a565b5b5f611a9984828501611a63565b91505092915050565b5f8115159050919050565b611ab681611aa2565b82525050565b5f602082019050611acf5f830184611aad565b92915050565b5f81519050919050565b5f82825260208201905092915050565b8281835e5f83830152505050565b5f601f19601f8301169050919050565b5f611b1782611ad5565b611b218185611adf565b9350611b31818560208601611aef565b611b3a81611afd565b840191505092915050565b5f6020820190508181035f830152611b5d8184611b0d565b905092915050565b5f819050919050565b611b7781611b65565b8114611b81575f5ffd5b50565b5f81359050611b9281611b6e565b92915050565b5f60208284031215611bad57611bac611a1a565b5b5f611bba84828501611b84565b91505092915050565b5f73ffffffffffffffffffffffffffffffffffffffff82169050919050565b5f611bec82611bc3565b9050919050565b611bfc81611be2565b82525050565b5f602082019050611c155f830184611bf3565b92915050565b611c2481611be2565b8114611c2e575f5ffd5b50565b5f81359050611c3f81611c1b565b92915050565b5f5f60408385031215611c5b57611c5a611a1a565b5b5f611c6885828601611c31565b9250506020611c7985828601611b84565b9150509250929050565b5f5f5f60608486031215611c9a57611c99611a1a565b5b5f611ca786828701611c31565b9350506020611cb886828701611c31565b9250506040611cc986828701611b84565b9150509250925092565b5f5f60408385031215611ce957611ce8611a1a565b5b5f611cf685828601611b84565b9250506020611d0785828601611b84565b9150509250929050565b5f5ffd5b5f5ffd5b7f4e487b71000000000000000000000000000000000000000000000000000000005f52604160045260245ffd5b611d4f82611afd565b810181811067ffffffffffffffff82111715611d6e57611d6d611d19565b5b80604052505050565b5f611d80611a11565b9050611d8c8282611d46565b919050565b5f67ffffffffffffffff821115611dab57611daa611d19565b5b611db482611afd565b9050602081019050919050565b828183375f83830152505050565b5f611de1611ddc84611d91565b611d77565b905082815260208101848484011115611dfd57611dfc611d15565b5b611e08848285611dc1565b509392505050565b5f82601f830112611e2457611e23611d11565b5b8135611e34848260208601611dcf565b91505092915050565b5f5f5f60608486031215611e5457611e53611a1a565b5b5f84013567ffffffffffffffff811115611e7157611e70611a1e565b5b611e7d86828701611e10565b9350506020611e8e86828701611c31565b925050604084013567ffffffffffffffff811115611eaf57611eae611a1e565b5b611ebb86828701611e10565b9150509250925092565b5f60208284031215611eda57611ed9611a1a565b5b5f611ee784828501611c31565b91505092915050565b611ef981611b65565b82525050565b5f602082019050611f125f830184611ef0565b92915050565b5f6060820190508181035f830152611f308186611b0d565b9050611f3f6020830185611ef0565b8181036040830152611f518184611b0d565b9050949350505050565b611f6481611aa2565b8114611f6e575f5ffd5b50565b5f81359050611f7f81611f5b565b92915050565b5f5f60408385031215611f9b57611f9a611a1a565b5b5f611fa885828601611c31565b9250506020611fb985828601611f71565b9150509250929050565b5f67ffffffffffffffff821115611fdd57611fdc611d19565b5b611fe682611afd565b9050602081019050919050565b5f61200561200084611fc3565b611d77565b90508281526020810184848401111561202157612020611d15565b5b61202c848285611dc1565b509392505050565b5f82601f83011261204857612047611d11565b5b8135612058848260208601611ff3565b91505092915050565b5f5f5f5f6080858703121561207957612078611a1a565b5b5f61208687828801611c31565b945050602061209787828801611c31565b93505060406120a887828801611b84565b925050606085013567ffffffffffffffff8111156120c9576120c8611a1e565b5b6120d587828801612034565b91505092959194509250565b5f5f604083850312156120f7576120f6611a1a565b5b5f61210485828601611c31565b925050602061211585828601611c31565b9150509250929050565b7f4e487b71000000000000000000000000000000000000000000000000000000005f52602260045260245ffd5b5f600282049050600182168061216357607f821691505b6020821081036121765761217561211f565b5b50919050565b5f60608201905061218f5f830186611bf3565b61219c6020830185611ef0565b6121a96040830184611bf3565b949350505050565b7f4170656e6173206f20646f6e6f20706f646520626174616c68617220636f6d205f8201527f6573736520506f6b656d6f6e0000000000000000000000000000000000000000602082015250565b5f61220b602c83611adf565b9150612216826121b1565b604082019050919050565b5f6020820190508181035f830152612238816121ff565b9050919050565b7f556d20506f6b656d6f6e206e616f20706f646520626174616c68617220636f6e5f8201527f74726120656c65206d65736d6f00000000000000000000000000000000000000602082015250565b5f612299602d83611adf565b91506122a48261223f565b604082019050919050565b5f6020820190508181035f8301526122c68161228d565b9050919050565b7f4e487b71000000000000000000000000000000000000000000000000000000005f52603260045260245ffd5b7f4e487b71000000000000000000000000000000000000000000000000000000005f52601160045260245ffd5b5f61233182611b65565b915061233c83611b65565b9250828201905080821115612354576123536122fa565b5b92915050565b7f4170656e6173206f20646f6e6f20646f206a6f676f20706f64652063726961725f8201527f206e6f766f7320506f6b656d6f6e730000000000000000000000000000000000602082015250565b5f6123b4602f83611adf565b91506123bf8261235a565b604082019050919050565b5f6020820190508181035f8301526123e1816123a8565b9050919050565b5f819050815f5260205f209050919050565b5f6020601f8301049050919050565b5f82821b905092915050565b5f600883026124447fffffffffffffffffffffffffffffffffffffffffffffffffffffffffffffffff82612409565b61244e8683612409565b95508019841693508086168417925050509392505050565b5f819050919050565b5f61248961248461247f84611b65565b612466565b611b65565b9050919050565b5f819050919050565b6124a28361246f565b6124b66124ae82612490565b848454612415565b825550505050565b5f5f905090565b6124cd6124be565b6124d8818484612499565b505050565b5b818110156124fb576124f05f826124c5565b6001810190506124de565b5050565b601f82111561254057612511816123e8565b61251a846123fa565b81016020851015612529578190505b61253d612535856123fa565b8301826124dd565b50505b505050565b5f82821c905092915050565b5f6125605f1984600802612545565b1980831691505092915050565b5f6125788383612551565b9150826002028217905092915050565b61259182611ad5565b67ffffffffffffffff8111156125aa576125a9611d19565b5b6125b4825461214c565b6125bf8282856124ff565b5f60209050601f8311600181146125f0575f84156125de578287015190505b6125e8858261256d565b86555061264f565b601f1984166125fe866123e8565b5f5b8281101561262557848901518255600182019150602085019450602081019050612600565b86831015612642578489015161263e601f891682612551565b8355505b6001600288020188555050505b505050505050565b5f81905092915050565b5f61266b82611ad5565b6126758185612657565b9350612685818560208601611aef565b80840191505092915050565b5f61269c8285612661565b91506126a88284612661565b91508190509392505050565b5f81519050919050565b5f82825260208201905092915050565b5f6126d8826126b4565b6126e281856126be565b93506126f2818560208601611aef565b6126fb81611afd565b840191505092915050565b5f6080820190506127195f830187611bf3565b6127266020830186611bf3565b6127336040830185611ef0565b818103606083015261274581846126ce565b905095945050505050565b5f8151905061275e81611a4d565b92915050565b5f6020828403121561277957612778611a1a565b5b5f61278684828501612750565b91505092915050565b7f4e487b71000000000000000000000000000000000000000000000000000000005f52601260045260245ffd5b5f6040820190506127cf5f830185611bf3565b6127dc6020830184611ef0565b939250505056fea2646970667358221220836e781f6162de906835845452cc2e64fc65f7ebc1332c7647a7c705578c626364736f6c634300081c0033",
			"opcodes": "PUSH1 0x80 PUSH1 0x40 MSTORE CALLVALUE DUP1 ISZERO PUSH2 0xF JUMPI PUSH0 PUSH0 REVERT JUMPDEST POP PUSH1 0x40 MLOAD DUP1 PUSH1 0x40 ADD PUSH1 0x40 MSTORE DUP1 PUSH1 0x7 DUP2 MSTORE PUSH1 0x20 ADD PUSH32 0x506F6B6544494F00000000000000000000000000000000000000000000000000 DUP2 MSTORE POP PUSH1 0x40 MLOAD DUP1 PUSH1 0x40 ADD PUSH1 0x40 MSTORE DUP1 PUSH1 0x3 DUP2 MSTORE PUSH1 0x20 ADD PUSH32 0x504B440000000000000000000000000000000000000000000000000000000000 DUP2 MSTORE POP DUP2 PUSH0 SWAP1 DUP2 PUSH2 0x8A SWAP2 SWAP1 PUSH2 0x31F JUMP JUMPDEST POP DUP1 PUSH1 0x1 SWAP1 DUP2 PUSH2 0x9A SWAP2 SWAP1 PUSH2 0x31F JUMP JUMPDEST POP POP POP CALLER PUSH1 0x7 PUSH0 PUSH2 0x100 EXP DUP2 SLOAD DUP2 PUSH20 0xFFFFFFFFFFFFFFFFFFFFFFFFFFFFFFFFFFFFFFFF MUL NOT AND SWAP1 DUP4 PUSH20 0xFFFFFFFFFFFFFFFFFFFFFFFFFFFFFFFFFFFFFFFF AND MUL OR SWAP1 SSTORE POP PUSH2 0x3EE JUMP JUMPDEST PUSH0 DUP2 MLOAD SWAP1 POP SWAP2 SWAP1 POP JUMP JUMPDEST PUSH32 0x4E487B7100000000000000000000000000000000000000000000000000000000 PUSH0 MSTORE PUSH1 0x41 PUSH1 0x4 MSTORE PUSH1 0x24 PUSH0 REVERT JUMPDEST PUSH32 0x4E487B7100000000000000000000000000000000000000000000000000000000 PUSH0 MSTORE PUSH1 0x22 PUSH1 0x4 MSTORE PUSH1 0x24 PUSH0 REVERT JUMPDEST PUSH0 PUSH1 0x2 DUP3 DIV SWAP1 POP PUSH1 0x1 DUP3 AND DUP1 PUSH2 0x15D JUMPI PUSH1 0x7F DUP3 AND SWAP2 POP JUMPDEST PUSH1 0x20 DUP3 LT DUP2 SUB PUSH2 0x170 JUMPI PUSH2 0x16F PUSH2 0x119 JUMP JUMPDEST JUMPDEST POP SWAP2 SWAP1 POP JUMP JUMPDEST PUSH0 DUP2 SWAP1 POP DUP2 PUSH0 MSTORE PUSH1 0x20 PUSH0 KECCAK256 SWAP1 POP SWAP2 SWAP1 POP JUMP JUMPDEST PUSH0 PUSH1 0x20 PUSH1 0x1F DUP4 ADD DIV SWAP1 POP SWAP2 SWAP1 POP JUMP JUMPDEST PUSH0 DUP3 DUP3 SHL SWAP1 POP SWAP3 SWAP2 POP POP JUMP JUMPDEST PUSH0 PUSH1 0x8 DUP4 MUL PUSH2 0x1D2 PUSH32 0xFFFFFFFFFFFFFFFFFFFFFFFFFFFFFFFFFFFFFFFFFFFFFFFFFFFFFFFFFFFFFFFF DUP3 PUSH2 0x197 JUMP JUMPDEST PUSH2 0x1DC DUP7 DUP4 PUSH2 0x197 JUMP JUMPDEST SWAP6 POP DUP1 NOT DUP5 AND SWAP4 POP DUP1 DUP7 AND DUP5 OR SWAP3 POP POP POP SWAP4 SWAP3 POP POP POP JUMP JUMPDEST PUSH0 DUP2 SWAP1 POP SWAP2 SWAP1 POP JUMP JUMPDEST PUSH0 DUP2 SWAP1 POP SWAP2 SWAP1 POP JUMP JUMPDEST PUSH0 PUSH2 0x220 PUSH2 0x21B PUSH2 0x216 DUP5 PUSH2 0x1F4 JUMP JUMPDEST PUSH2 0x1FD JUMP JUMPDEST PUSH2 0x1F4 JUMP JUMPDEST SWAP1 POP SWAP2 SWAP1 POP JUMP JUMPDEST PUSH0 DUP2 SWAP1 POP SWAP2 SWAP1 POP JUMP JUMPDEST PUSH2 0x239 DUP4 PUSH2 0x206 JUMP JUMPDEST PUSH2 0x24D PUSH2 0x245 DUP3 PUSH2 0x227 JUMP JUMPDEST DUP5 DUP5 SLOAD PUSH2 0x1A3 JUMP JUMPDEST DUP3 SSTORE POP POP POP POP JUMP JUMPDEST PUSH0 PUSH0 SWAP1 POP SWAP1 JUMP JUMPDEST PUSH2 0x264 PUSH2 0x255 JUMP JUMPDEST PUSH2 0x26F DUP2 DUP5 DUP5 PUSH2 0x230 JUMP JUMPDEST POP POP POP JUMP JUMPDEST JUMPDEST DUP2 DUP2 LT ISZERO PUSH2 0x292 JUMPI PUSH2 0x287 PUSH0 DUP3 PUSH2 0x25C JUMP JUMPDEST PUSH1 0x1 DUP2 ADD SWAP1 POP PUSH2 0x275 JUMP JUMPDEST POP POP JUMP JUMPDEST PUSH1 0x1F DUP3 GT ISZERO PUSH2 0x2D7 JUMPI PUSH2 0x2A8 DUP2 PUSH2 0x176 JUMP JUMPDEST PUSH2 0x2B1 DUP5 PUSH2 0x188 JUMP JUMPDEST DUP2 ADD PUSH1 0x20 DUP6 LT ISZERO PUSH2 0x2C0 JUMPI DUP2 SWAP1 POP JUMPDEST PUSH2 0x2D4 PUSH2 0x2CC DUP6 PUSH2 0x188 JUMP JUMPDEST DUP4 ADD DUP3 PUSH2 0x274 JUMP JUMPDEST POP POP JUMPDEST POP POP POP JUMP JUMPDEST PUSH0 DUP3 DUP3 SHR SWAP1 POP SWAP3 SWAP2 POP POP JUMP JUMPDEST PUSH0 PUSH2 0x2F7 PUSH0 NOT DUP5 PUSH1 0x8 MUL PUSH2 0x2DC JUMP JUMPDEST NOT DUP1 DUP4 AND SWAP2 POP POP SWAP3 SWAP2 POP POP JUMP JUMPDEST PUSH0 PUSH2 0x30F DUP4 DUP4 PUSH2 0x2E8 JUMP JUMPDEST SWAP2 POP DUP3 PUSH1 0x2 MUL DUP3 OR SWAP1 POP SWAP3 SWAP2 POP POP JUMP JUMPDEST PUSH2 0x328 DUP3 PUSH2 0xE2 JUMP JUMPDEST PUSH8 0xFFFFFFFFFFFFFFFF DUP2 GT ISZERO PUSH2 0x341 JUMPI PUSH2 0x340 PUSH2 0xEC JUMP JUMPDEST JUMPDEST PUSH2 0x34B DUP3 SLOAD PUSH2 0x146 JUMP JUMPDEST PUSH2 0x356 DUP3 DUP3 DUP6 PUSH2 0x296 JUMP JUMPDEST PUSH0 PUSH1 0x20 SWAP1 POP PUSH1 0x1F DUP4 GT PUSH1 0x1 DUP2 EQ PUSH2 0x387 JUMPI PUSH0 DUP5 ISZERO PUSH2 0x375 JUMPI DUP3 DUP8 ADD MLOAD SWAP1 POP JUMPDEST PUSH2 0x37F DUP6 DUP3 PUSH2 0x304 JUMP JUMPDEST DUP7 SSTORE POP PUSH2 0x3E6 JUMP JUMPDEST PUSH1 0x1F NOT DUP5 AND PUSH2 0x395 DUP7 PUSH2 0x176 JUMP JUMPDEST PUSH0 JUMPDEST DUP3 DUP2 LT ISZERO PUSH2 0x3BC JUMPI DUP5 DUP10 ADD MLOAD DUP3 SSTORE PUSH1 0x1 DUP3 ADD SWAP2 POP PUSH1 0x20 DUP6 ADD SWAP5 POP PUSH1 0x20 DUP2 ADD SWAP1 POP PUSH2 0x397 JUMP JUMPDEST DUP7 DUP4 LT ISZERO PUSH2 0x3D9 JUMPI DUP5 DUP10 ADD MLOAD PUSH2 0x3D5 PUSH1 0x1F DUP10 AND DUP3 PUSH2 0x2E8 JUMP JUMPDEST DUP4 SSTORE POP JUMPDEST PUSH1 0x1 PUSH1 0x2 DUP9 MUL ADD DUP9 SSTORE POP POP POP JUMPDEST POP POP POP POP POP POP JUMP JUMPDEST PUSH2 0x2819 DUP1 PUSH2 0x3FB PUSH0 CODECOPY PUSH0 RETURN INVALID PUSH1 0x80 PUSH1 0x40 MSTORE CALLVALUE DUP1 ISZERO PUSH2 0xF JUMPI PUSH0 PUSH0 REVERT JUMPDEST POP PUSH1 0x4 CALLDATASIZE LT PUSH2 0x109 JUMPI PUSH0 CALLDATALOAD PUSH1 0xE0 SHR DUP1 PUSH4 0x6352211E GT PUSH2 0xA0 JUMPI DUP1 PUSH4 0xA22CB465 GT PUSH2 0x6F JUMPI DUP1 PUSH4 0xA22CB465 EQ PUSH2 0x2C7 JUMPI DUP1 PUSH4 0xB88D4FDE EQ PUSH2 0x2E3 JUMPI DUP1 PUSH4 0xC87B56DD EQ PUSH2 0x2FF JUMPI DUP1 PUSH4 0xE985E9C5 EQ PUSH2 0x32F JUMPI DUP1 PUSH4 0xF6B12F28 EQ PUSH2 0x35F JUMPI PUSH2 0x109 JUMP JUMPDEST DUP1 PUSH4 0x6352211E EQ PUSH2 0x217 JUMPI DUP1 PUSH4 0x70A08231 EQ PUSH2 0x247 JUMPI DUP1 PUSH4 0x85831079 EQ PUSH2 0x277 JUMPI DUP1 PUSH4 0x95D89B41 EQ PUSH2 0x2A9 JUMPI PUSH2 0x109 JUMP JUMPDEST DUP1 PUSH4 0x23B872DD GT PUSH2 0xDC JUMPI DUP1 PUSH4 0x23B872DD EQ PUSH2 0x1A7 JUMPI DUP1 PUSH4 0x2A0C5221 EQ PUSH2 0x1C3 JUMPI DUP1 PUSH4 0x42842E0E EQ PUSH2 0x1DF JUMPI DUP1 PUSH4 0x555072DE EQ PUSH2 0x1FB JUMPI PUSH2 0x109 JUMP JUMPDEST DUP1 PUSH4 0x1FFC9A7 EQ PUSH2 0x10D JUMPI DUP1 PUSH4 0x6FDDE03 EQ PUSH2 0x13D JUMPI DUP1 PUSH4 0x81812FC EQ PUSH2 0x15B JUMPI DUP1 PUSH4 0x95EA7B3 EQ PUSH2 0x18B JUMPI JUMPDEST PUSH0 PUSH0 REVERT JUMPDEST PUSH2 0x127 PUSH1 0x4 DUP1 CALLDATASIZE SUB DUP2 ADD SWAP1 PUSH2 0x122 SWAP2 SWAP1 PUSH2 0x1A77 JUMP JUMPDEST PUSH2 0x37D JUMP JUMPDEST PUSH1 0x40 MLOAD PUSH2 0x134 SWAP2 SWAP1 PUSH2 0x1ABC JUMP JUMPDEST PUSH1 0x40 MLOAD DUP1 SWAP2 SUB SWAP1 RETURN JUMPDEST PUSH2 0x145 PUSH2 0x45E JUMP JUMPDEST PUSH1 0x40 MLOAD PUSH2 0x152 SWAP2 SWAP1 PUSH2 0x1B45 JUMP JUMPDEST PUSH1 0x40 MLOAD DUP1 SWAP2 SUB SWAP1 RETURN JUMPDEST PUSH2 0x175 PUSH1 0x4 DUP1 CALLDATASIZE SUB DUP2 ADD SWAP1 PUSH2 0x170 SWAP2 SWAP1 PUSH2 0x1B98 JUMP JUMPDEST PUSH2 0x4ED JUMP JUMPDEST PUSH1 0x40 MLOAD PUSH2 0x182 SWAP2 SWAP1 PUSH2 0x1C02 JUMP JUMPDEST PUSH1 0x40 MLOAD DUP1 SWAP2 SUB SWAP1 RETURN JUMPDEST PUSH2 0x1A5 PUSH1 0x4 DUP1 CALLDATASIZE SUB DUP2 ADD SWAP1 PUSH2 0x1A0 SWAP2 SWAP1 PUSH2 0x1C45 JUMP JUMPDEST PUSH2 0x508 JUMP JUMPDEST STOP JUMPDEST PUSH2 0x1C1 PUSH1 0x4 DUP1 CALLDATASIZE SUB DUP2 ADD SWAP1 PUSH2 0x1BC SWAP2 SWAP1 PUSH2 0x1C83 JUMP JUMPDEST PUSH2 0x51E JUMP JUMPDEST STOP JUMPDEST PUSH2 0x1DD PUSH1 0x4 DUP1 CALLDATASIZE SUB DUP2 ADD SWAP1 PUSH2 0x1D8 SWAP2 SWAP1 PUSH2 0x1CD3 JUMP JUMPDEST PUSH2 0x61D JUMP JUMPDEST STOP JUMPDEST PUSH2 0x1F9 PUSH1 0x4 DUP1 CALLDATASIZE SUB DUP2 ADD SWAP1 PUSH2 0x1F4 SWAP2 SWAP1 PUSH2 0x1C83 JUMP JUMPDEST PUSH2 0x7A4 JUMP JUMPDEST STOP JUMPDEST PUSH2 0x215 PUSH1 0x4 DUP1 CALLDATASIZE SUB DUP2 ADD SWAP1 PUSH2 0x210 SWAP2 SWAP1 PUSH2 0x1E3D JUMP JUMPDEST PUSH2 0x7C3 JUMP JUMPDEST STOP JUMPDEST PUSH2 0x231 PUSH1 0x4 DUP1 CALLDATASIZE SUB DUP2 ADD SWAP1 PUSH2 0x22C SWAP2 SWAP1 PUSH2 0x1B98 JUMP JUMPDEST PUSH2 0x8E5 JUMP JUMPDEST PUSH1 0x40 MLOAD PUSH2 0x23E SWAP2 SWAP1 PUSH2 0x1C02 JUMP JUMPDEST PUSH1 0x40 MLOAD DUP1 SWAP2 SUB SWAP1 RETURN JUMPDEST PUSH2 0x261 PUSH1 0x4 DUP1 CALLDATASIZE SUB DUP2 ADD SWAP1 PUSH2 0x25C SWAP2 SWAP1 PUSH2 0x1EC5 JUMP JUMPDEST PUSH2 0x8F6 JUMP JUMPDEST PUSH1 0x40 MLOAD PUSH2 0x26E SWAP2 SWAP1 PUSH2 0x1EFF JUMP JUMPDEST PUSH1 0x40 MLOAD DUP1 SWAP2 SUB SWAP1 RETURN JUMPDEST PUSH2 0x291 PUSH1 0x4 DUP1 CALLDATASIZE SUB DUP2 ADD SWAP1 PUSH2 0x28C SWAP2 SWAP1 PUSH2 0x1B98 JUMP JUMPDEST PUSH2 0x9AC JUMP JUMPDEST PUSH1 0x40 MLOAD PUSH2 0x2A0 SWAP4 SWAP3 SWAP2 SWAP1 PUSH2 0x1F18 JUMP JUMPDEST PUSH1 0x40 MLOAD DUP1 SWAP2 SUB SWAP1 RETURN JUMPDEST PUSH2 0x2B1 PUSH2 0xAED JUMP JUMPDEST PUSH1 0x40 MLOAD PUSH2 0x2BE SWAP2 SWAP1 PUSH2 0x1B45 JUMP JUMPDEST PUSH1 0x40 MLOAD DUP1 SWAP2 SUB SWAP1 RETURN JUMPDEST PUSH2 0x2E1 PUSH1 0x4 DUP1 CALLDATASIZE SUB DUP2 ADD SWAP1 PUSH2 0x2DC SWAP2 SWAP1 PUSH2 0x1F85 JUMP JUMPDEST PUSH2 0xB7D JUMP JUMPDEST STOP JUMPDEST PUSH2 0x2FD PUSH1 0x4 DUP1 CALLDATASIZE SUB DUP2 ADD SWAP1 PUSH2 0x2F8 SWAP2 SWAP1 PUSH2 0x2061 JUMP JUMPDEST PUSH2 0xB93 JUMP JUMPDEST STOP JUMPDEST PUSH2 0x319 PUSH1 0x4 DUP1 CALLDATASIZE SUB DUP2 ADD SWAP1 PUSH2 0x314 SWAP2 SWAP1 PUSH2 0x1B98 JUMP JUMPDEST PUSH2 0xBB8 JUMP JUMPDEST PUSH1 0x40 MLOAD PUSH2 0x326 SWAP2 SWAP1 PUSH2 0x1B45 JUMP JUMPDEST PUSH1 0x40 MLOAD DUP1 SWAP2 SUB SWAP1 RETURN JUMPDEST PUSH2 0x349 PUSH1 0x4 DUP1 CALLDATASIZE SUB DUP2 ADD SWAP1 PUSH2 0x344 SWAP2 SWAP1 PUSH2 0x20E1 JUMP JUMPDEST PUSH2 0xC1E JUMP JUMPDEST PUSH1 0x40 MLOAD PUSH2 0x356 SWAP2 SWAP1 PUSH2 0x1ABC JUMP JUMPDEST PUSH1 0x40 MLOAD DUP1 SWAP2 SUB SWAP1 RETURN JUMPDEST PUSH2 0x367 PUSH2 0xCAC JUMP JUMPDEST PUSH1 0x40 MLOAD PUSH2 0x374 SWAP2 SWAP1 PUSH2 0x1C02 JUMP JUMPDEST PUSH1 0x40 MLOAD DUP1 SWAP2 SUB SWAP1 RETURN JUMPDEST PUSH0 PUSH32 0x80AC58CD00000000000000000000000000000000000000000000000000000000 PUSH28 0xFFFFFFFFFFFFFFFFFFFFFFFFFFFFFFFFFFFFFFFFFFFFFFFFFFFFFFFF NOT AND DUP3 PUSH28 0xFFFFFFFFFFFFFFFFFFFFFFFFFFFFFFFFFFFFFFFFFFFFFFFFFFFFFFFF NOT AND EQ DUP1 PUSH2 0x447 JUMPI POP PUSH32 0x5B5E139F00000000000000000000000000000000000000000000000000000000 PUSH28 0xFFFFFFFFFFFFFFFFFFFFFFFFFFFFFFFFFFFFFFFFFFFFFFFFFFFFFFFF NOT AND DUP3 PUSH28 0xFFFFFFFFFFFFFFFFFFFFFFFFFFFFFFFFFFFFFFFFFFFFFFFFFFFFFFFF NOT AND EQ JUMPDEST DUP1 PUSH2 0x457 JUMPI POP PUSH2 0x456 DUP3 PUSH2 0xCD1 JUMP JUMPDEST JUMPDEST SWAP1 POP SWAP2 SWAP1 POP JUMP JUMPDEST PUSH1 0x60 PUSH0 DUP1 SLOAD PUSH2 0x46C SWAP1 PUSH2 0x214C JUMP JUMPDEST DUP1 PUSH1 0x1F ADD PUSH1 0x20 DUP1 SWAP2 DIV MUL PUSH1 0x20 ADD PUSH1 0x40 MLOAD SWAP1 DUP2 ADD PUSH1 0x40 MSTORE DUP1 SWAP3 SWAP2 SWAP1 DUP2 DUP2 MSTORE PUSH1 0x20 ADD DUP3 DUP1 SLOAD PUSH2 0x498 SWAP1 PUSH2 0x214C JUMP JUMPDEST DUP1 ISZERO PUSH2 0x4E3 JUMPI DUP1 PUSH1 0x1F LT PUSH2 0x4BA JUMPI PUSH2 0x100 DUP1 DUP4 SLOAD DIV MUL DUP4 MSTORE SWAP2 PUSH1 0x20 ADD SWAP2 PUSH2 0x4E3 JUMP JUMPDEST DUP3 ADD SWAP2 SWAP1 PUSH0 MSTORE PUSH1 0x20 PUSH0 KECCAK256 SWAP1 JUMPDEST DUP2 SLOAD DUP2 MSTORE SWAP1 PUSH1 0x1 ADD SWAP1 PUSH1 0x20 ADD DUP1 DUP4 GT PUSH2 0x4C6 JUMPI DUP3 SWAP1 SUB PUSH1 0x1F AND DUP3 ADD SWAP2 JUMPDEST POP POP POP POP POP SWAP1 POP SWAP1 JUMP JUMPDEST PUSH0 PUSH2 0x4F7 DUP3 PUSH2 0xD3A JUMP JUMPDEST POP PUSH2 0x501 DUP3 PUSH2 0xDC0 JUMP JUMPDEST SWAP1 POP SWAP2 SWAP1 POP JUMP JUMPDEST PUSH2 0x51A DUP3 DUP3 PUSH2 0x515 PUSH2 0xDF9 JUMP JUMPDEST PUSH2 0xE00 JUMP JUMPDEST POP POP JUMP JUMPDEST PUSH0 PUSH20 0xFFFFFFFFFFFFFFFFFFFFFFFFFFFFFFFFFFFFFFFF AND DUP3 PUSH20 0xFFFFFFFFFFFFFFFFFFFFFFFFFFFFFFFFFFFFFFFF AND SUB PUSH2 0x58E JUMPI PUSH0 PUSH1 0x40 MLOAD PUSH32 0x64A0AE9200000000000000000000000000000000000000000000000000000000 DUP2 MSTORE PUSH1 0x4 ADD PUSH2 0x585 SWAP2 SWAP1 PUSH2 0x1C02 JUMP JUMPDEST PUSH1 0x40 MLOAD DUP1 SWAP2 SUB SWAP1 REVERT JUMPDEST PUSH0 PUSH2 0x5A1 DUP4 DUP4 PUSH2 0x59C PUSH2 0xDF9 JUMP JUMPDEST PUSH2 0xE12 JUMP JUMPDEST SWAP1 POP DUP4 PUSH20 0xFFFFFFFFFFFFFFFFFFFFFFFFFFFFFFFFFFFFFFFF AND DUP2 PUSH20 0xFFFFFFFFFFFFFFFFFFFFFFFFFFFFFFFFFFFFFFFF AND EQ PUSH2 0x617 JUMPI DUP4 DUP3 DUP3 PUSH1 0x40 MLOAD PUSH32 0x64283D7B00000000000000000000000000000000000000000000000000000000 DUP2 MSTORE PUSH1 0x4 ADD PUSH2 0x60E SWAP4 SWAP3 SWAP2 SWAP1 PUSH2 0x217C JUMP JUMPDEST PUSH1 0x40 MLOAD DUP1 SWAP2 SUB SWAP1 REVERT JUMPDEST POP POP POP POP JUMP JUMPDEST DUP2 CALLER PUSH20 0xFFFFFFFFFFFFFFFFFFFFFFFFFFFFFFFFFFFFFFFF AND PUSH2 0x63E DUP3 PUSH2 0x8E5 JUMP JUMPDEST PUSH20 0xFFFFFFFFFFFFFFFFFFFFFFFFFFFFFFFFFFFFFFFF AND EQ PUSH2 0x694 JUMPI PUSH1 0x40 MLOAD PUSH32 0x8C379A000000000000000000000000000000000000000000000000000000000 DUP2 MSTORE PUSH1 0x4 ADD PUSH2 0x68B SWAP1 PUSH2 0x2221 JUMP JUMPDEST PUSH1 0x40 MLOAD DUP1 SWAP2 SUB SWAP1 REVERT JUMPDEST DUP2 DUP4 SUB PUSH2 0x6D6 JUMPI PUSH1 0x40 MLOAD PUSH32 0x8C379A000000000000000000000000000000000000000000000000000000000 DUP2 MSTORE PUSH1 0x4 ADD PUSH2 0x6CD SWAP1 PUSH2 0x22AF JUMP JUMPDEST PUSH1 0x40 MLOAD DUP1 SWAP2 SUB SWAP1 REVERT JUMPDEST PUSH0 PUSH1 0x6 DUP5 DUP2 SLOAD DUP2 LT PUSH2 0x6EB JUMPI PUSH2 0x6EA PUSH2 0x22CD JUMP JUMPDEST JUMPDEST SWAP1 PUSH0 MSTORE PUSH1 0x20 PUSH0 KECCAK256 SWAP1 PUSH1 0x3 MUL ADD SWAP1 POP PUSH0 PUSH1 0x6 DUP5 DUP2 SLOAD DUP2 LT PUSH2 0x70E JUMPI PUSH2 0x70D PUSH2 0x22CD JUMP JUMPDEST JUMPDEST SWAP1 PUSH0 MSTORE PUSH1 0x20 PUSH0 KECCAK256 SWAP1 PUSH1 0x3 MUL ADD SWAP1 POP DUP1 PUSH1 0x1 ADD SLOAD DUP3 PUSH1 0x1 ADD SLOAD LT PUSH2 0x766 JUMPI PUSH1 0x2 DUP3 PUSH1 0x1 ADD PUSH0 DUP3 DUP3 SLOAD PUSH2 0x73F SWAP2 SWAP1 PUSH2 0x2327 JUMP JUMPDEST SWAP3 POP POP DUP2 SWAP1 SSTORE POP PUSH1 0x1 DUP2 PUSH1 0x1 ADD PUSH0 DUP3 DUP3 SLOAD PUSH2 0x75A SWAP2 SWAP1 PUSH2 0x2327 JUMP JUMPDEST SWAP3 POP POP DUP2 SWAP1 SSTORE POP PUSH2 0x79D JUMP JUMPDEST PUSH1 0x1 DUP3 PUSH1 0x1 ADD PUSH0 DUP3 DUP3 SLOAD PUSH2 0x77A SWAP2 SWAP1 PUSH2 0x2327 JUMP JUMPDEST SWAP3 POP POP DUP2 SWAP1 SSTORE POP PUSH1 0x2 DUP2 PUSH1 0x1 ADD PUSH0 DUP3 DUP3 SLOAD PUSH2 0x795 SWAP2 SWAP1 PUSH2 0x2327 JUMP JUMPDEST SWAP3 POP POP DUP2 SWAP1 SSTORE POP JUMPDEST POP POP POP POP POP JUMP JUMPDEST PUSH2 0x7BE DUP4 DUP4 DUP4 PUSH1 0x40 MLOAD DUP1 PUSH1 0x20 ADD PUSH1 0x40 MSTORE DUP1 PUSH0 DUP2 MSTORE POP PUSH2 0xB93 JUMP JUMPDEST POP POP POP JUMP JUMPDEST PUSH1 0x7 PUSH0 SWAP1 SLOAD SWAP1 PUSH2 0x100 EXP SWAP1 DIV PUSH20 0xFFFFFFFFFFFFFFFFFFFFFFFFFFFFFFFFFFFFFFFF AND PUSH20 0xFFFFFFFFFFFFFFFFFFFFFFFFFFFFFFFFFFFFFFFF AND CALLER PUSH20 0xFFFFFFFFFFFFFFFFFFFFFFFFFFFFFFFFFFFFFFFF AND EQ PUSH2 0x852 JUMPI PUSH1 0x40 MLOAD PUSH32 0x8C379A000000000000000000000000000000000000000000000000000000000 DUP2 MSTORE PUSH1 0x4 ADD PUSH2 0x849 SWAP1 PUSH2 0x23CA JUMP JUMPDEST PUSH1 0x40 MLOAD DUP1 SWAP2 SUB SWAP1 REVERT JUMPDEST PUSH0 PUSH1 0x6 DUP1 SLOAD SWAP1 POP SWAP1 POP PUSH1 0x6 PUSH1 0x40 MLOAD DUP1 PUSH1 0x60 ADD PUSH1 0x40 MSTORE DUP1 DUP7 DUP2 MSTORE PUSH1 0x20 ADD PUSH1 0x1 DUP2 MSTORE PUSH1 0x20 ADD DUP5 DUP2 MSTORE POP SWAP1 DUP1 PUSH1 0x1 DUP2 SLOAD ADD DUP1 DUP3 SSTORE DUP1 SWAP2 POP POP PUSH1 0x1 SWAP1 SUB SWAP1 PUSH0 MSTORE PUSH1 0x20 PUSH0 KECCAK256 SWAP1 PUSH1 0x3 MUL ADD PUSH0 SWAP1 SWAP2 SWAP1 SWAP2 SWAP1 SWAP2 POP PUSH0 DUP3 ADD MLOAD DUP2 PUSH0 ADD SWAP1 DUP2 PUSH2 0x8B2 SWAP2 SWAP1 PUSH2 0x2588 JUMP JUMPDEST POP PUSH1 0x20 DUP3 ADD MLOAD DUP2 PUSH1 0x1 ADD SSTORE PUSH1 0x40 DUP3 ADD MLOAD DUP2 PUSH1 0x2 ADD SWAP1 DUP2 PUSH2 0x8D2 SWAP2 SWAP1 PUSH2 0x2588 JUMP JUMPDEST POP POP POP PUSH2 0x8DF DUP4 DUP3 PUSH2 0x101D JUMP JUMPDEST POP POP POP POP JUMP JUMPDEST PUSH0 PUSH2 0x8EF DUP3 PUSH2 0xD3A JUMP JUMPDEST SWAP1 POP SWAP2 SWAP1 POP JUMP JUMPDEST PUSH0 PUSH0 PUSH20 0xFFFFFFFFFFFFFFFFFFFFFFFFFFFFFFFFFFFFFFFF AND DUP3 PUSH20 0xFFFFFFFFFFFFFFFFFFFFFFFFFFFFFFFFFFFFFFFF AND SUB PUSH2 0x967 JUMPI PUSH0 PUSH1 0x40 MLOAD PUSH32 0x89C62B6400000000000000000000000000000000000000000000000000000000 DUP2 MSTORE PUSH1 0x4 ADD PUSH2 0x95E SWAP2 SWAP1 PUSH2 0x1C02 JUMP JUMPDEST PUSH1 0x40 MLOAD DUP1 SWAP2 SUB SWAP1 REVERT JUMPDEST PUSH1 0x3 PUSH0 DUP4 PUSH20 0xFFFFFFFFFFFFFFFFFFFFFFFFFFFFFFFFFFFFFFFF AND PUSH20 0xFFFFFFFFFFFFFFFFFFFFFFFFFFFFFFFFFFFFFFFF AND DUP2 MSTORE PUSH1 0x20 ADD SWAP1 DUP2 MSTORE PUSH1 0x20 ADD PUSH0 KECCAK256 SLOAD SWAP1 POP SWAP2 SWAP1 POP JUMP JUMPDEST PUSH1 0x6 DUP2 DUP2 SLOAD DUP2 LT PUSH2 0x9BB JUMPI PUSH0 DUP1 REVERT JUMPDEST SWAP1 PUSH0 MSTORE PUSH1 0x20 PUSH0 KECCAK256 SWAP1 PUSH1 0x3 MUL ADD PUSH0 SWAP2 POP SWAP1 POP DUP1 PUSH0 ADD DUP1 SLOAD PUSH2 0x9DA SWAP1 PUSH2 0x214C JUMP JUMPDEST DUP1 PUSH1 0x1F ADD PUSH1 0x20 DUP1 SWAP2 DIV MUL PUSH1 0x20 ADD PUSH1 0x40 MLOAD SWAP1 DUP2 ADD PUSH1 0x40 MSTORE DUP1 SWAP3 SWAP2 SWAP1 DUP2 DUP2 MSTORE PUSH1 0x20 ADD DUP3 DUP1 SLOAD PUSH2 0xA06 SWAP1 PUSH2 0x214C JUMP JUMPDEST DUP1 ISZERO PUSH2 0xA51 JUMPI DUP1 PUSH1 0x1F LT PUSH2 0xA28 JUMPI PUSH2 0x100 DUP1 DUP4 SLOAD DIV MUL DUP4 MSTORE SWAP2 PUSH1 0x20 ADD SWAP2 PUSH2 0xA51 JUMP JUMPDEST DUP3 ADD SWAP2 SWAP1 PUSH0 MSTORE PUSH1 0x20 PUSH0 KECCAK256 SWAP1 JUMPDEST DUP2 SLOAD DUP2 MSTORE SWAP1 PUSH1 0x1 ADD SWAP1 PUSH1 0x20 ADD DUP1 DUP4 GT PUSH2 0xA34 JUMPI DUP3 SWAP1 SUB PUSH1 0x1F AND DUP3 ADD SWAP2 JUMPDEST POP POP POP POP POP SWAP1 DUP1 PUSH1 0x1 ADD SLOAD SWAP1 DUP1 PUSH1 0x2 ADD DUP1 SLOAD PUSH2 0xA6C SWAP1 PUSH2 0x214C JUMP JUMPDEST DUP1 PUSH1 0x1F ADD PUSH1 0x20 DUP1 SWAP2 DIV MUL PUSH1 0x20 ADD PUSH1 0x40 MLOAD SWAP1 DUP2 ADD PUSH1 0x40 MSTORE DUP1 SWAP3 SWAP2 SWAP1 DUP2 DUP2 MSTORE PUSH1 0x20 ADD DUP3 DUP1 SLOAD PUSH2 0xA98 SWAP1 PUSH2 0x214C JUMP JUMPDEST DUP1 ISZERO PUSH2 0xAE3 JUMPI DUP1 PUSH1 0x1F LT PUSH2 0xABA JUMPI PUSH2 0x100 DUP1 DUP4 SLOAD DIV MUL DUP4 MSTORE SWAP2 PUSH1 0x20 ADD SWAP2 PUSH2 0xAE3 JUMP JUMPDEST DUP3 ADD SWAP2 SWAP1 PUSH0 MSTORE PUSH1 0x20 PUSH0 KECCAK256 SWAP1 JUMPDEST DUP2 SLOAD DUP2 MSTORE SWAP1 PUSH1 0x1 ADD SWAP1 PUSH1 0x20 ADD DUP1 DUP4 GT PUSH2 0xAC6 JUMPI DUP3 SWAP1 SUB PUSH1 0x1F AND DUP3 ADD SWAP2 JUMPDEST POP POP POP POP POP SWAP1 POP DUP4 JUMP JUMPDEST PUSH1 0x60 PUSH1 0x1 DUP1 SLOAD PUSH2 0xAFC SWAP1 PUSH2 0x214C JUMP JUMPDEST DUP1 PUSH1 0x1F ADD PUSH1 0x20 DUP1 SWAP2 DIV MUL PUSH1 0x20 ADD PUSH1 0x40 MLOAD SWAP1 DUP2 ADD PUSH1 0x40 MSTORE DUP1 SWAP3 SWAP2 SWAP1 DUP2 DUP2 MSTORE PUSH1 0x20 ADD DUP3 DUP1 SLOAD PUSH2 0xB28 SWAP1 PUSH2 0x214C JUMP JUMPDEST DUP1 ISZERO PUSH2 0xB73 JUMPI DUP1 PUSH1 0x1F LT PUSH2 0xB4A JUMPI PUSH2 0x100 DUP1 DUP4 SLOAD DIV MUL DUP4 MSTORE SWAP2 PUSH1 0x20 ADD SWAP2 PUSH2 0xB73 JUMP JUMPDEST DUP3 ADD SWAP2 SWAP1 PUSH0 MSTORE PUSH1 0x20 PUSH0 KECCAK256 SWAP1 JUMPDEST DUP2 SLOAD DUP2 MSTORE SWAP1 PUSH1 0x1 ADD SWAP1 PUSH1 0x20 ADD DUP1 DUP4 GT PUSH2 0xB56 JUMPI DUP3 SWAP1 SUB PUSH1 0x1F AND DUP3 ADD SWAP2 JUMPDEST POP POP POP POP POP SWAP1 POP SWAP1 JUMP JUMPDEST PUSH2 0xB8F PUSH2 0xB88 PUSH2 0xDF9 JUMP JUMPDEST DUP4 DUP4 PUSH2 0x103A JUMP JUMPDEST POP POP JUMP JUMPDEST PUSH2 0xB9E DUP5 DUP5 DUP5 PUSH2 0x51E JUMP JUMPDEST PUSH2 0xBB2 PUSH2 0xBA9 PUSH2 0xDF9 JUMP JUMPDEST DUP6 DUP6 DUP6 DUP6 PUSH2 0x11A3 JUMP JUMPDEST POP POP POP POP JUMP JUMPDEST PUSH1 0x60 PUSH2 0xBC3 DUP3 PUSH2 0xD3A JUMP JUMPDEST POP PUSH0 PUSH2 0xBCD PUSH2 0x134F JUMP JUMPDEST SWAP1 POP PUSH0 DUP2 MLOAD GT PUSH2 0xBEB JUMPI PUSH1 0x40 MLOAD DUP1 PUSH1 0x20 ADD PUSH1 0x40 MSTORE DUP1 PUSH0 DUP2 MSTORE POP PUSH2 0xC16 JUMP JUMPDEST DUP1 PUSH2 0xBF5 DUP5 PUSH2 0x1365 JUMP JUMPDEST PUSH1 0x40 MLOAD PUSH1 0x20 ADD PUSH2 0xC06 SWAP3 SWAP2 SWAP1 PUSH2 0x2691 JUMP JUMPDEST PUSH1 0x40 MLOAD PUSH1 0x20 DUP2 DUP4 SUB SUB DUP2 MSTORE SWAP1 PUSH1 0x40 MSTORE JUMPDEST SWAP2 POP POP SWAP2 SWAP1 POP JUMP JUMPDEST PUSH0 PUSH1 0x5 PUSH0 DUP5 PUSH20 0xFFFFFFFFFFFFFFFFFFFFFFFFFFFFFFFFFFFFFFFF AND PUSH20 0xFFFFFFFFFFFFFFFFFFFFFFFFFFFFFFFFFFFFFFFF AND DUP2 MSTORE PUSH1 0x20 ADD SWAP1 DUP2 MSTORE PUSH1 0x20 ADD PUSH0 KECCAK256 PUSH0 DUP4 PUSH20 0xFFFFFFFFFFFFFFFFFFFFFFFFFFFFFFFFFFFFFFFF AND PUSH20 0xFFFFFFFFFFFFFFFFFFFFFFFFFFFFFFFFFFFFFFFF AND DUP2 MSTORE PUSH1 0x20 ADD SWAP1 DUP2 MSTORE PUSH1 0x20 ADD PUSH0 KECCAK256 PUSH0 SWAP1 SLOAD SWAP1 PUSH2 0x100 EXP SWAP1 DIV PUSH1 0xFF AND SWAP1 POP SWAP3 SWAP2 POP POP JUMP JUMPDEST PUSH1 0x7 PUSH0 SWAP1 SLOAD SWAP1 PUSH2 0x100 EXP SWAP1 DIV PUSH20 0xFFFFFFFFFFFFFFFFFFFFFFFFFFFFFFFFFFFFFFFF AND DUP2 JUMP JUMPDEST PUSH0 PUSH32 0x1FFC9A700000000000000000000000000000000000000000000000000000000 PUSH28 0xFFFFFFFFFFFFFFFFFFFFFFFFFFFFFFFFFFFFFFFFFFFFFFFFFFFFFFFF NOT AND DUP3 PUSH28 0xFFFFFFFFFFFFFFFFFFFFFFFFFFFFFFFFFFFFFFFFFFFFFFFFFFFFFFFF NOT AND EQ SWAP1 POP SWAP2 SWAP1 POP JUMP JUMPDEST PUSH0 PUSH0 PUSH2 0xD45 DUP4 PUSH2 0x142F JUMP JUMPDEST SWAP1 POP PUSH0 PUSH20 0xFFFFFFFFFFFFFFFFFFFFFFFFFFFFFFFFFFFFFFFF AND DUP2 PUSH20 0xFFFFFFFFFFFFFFFFFFFFFFFFFFFFFFFFFFFFFFFF AND SUB PUSH2 0xDB7 JUMPI DUP3 PUSH1 0x40 MLOAD PUSH32 0x7E27328900000000000000000000000000000000000000000000000000000000 DUP2 MSTORE PUSH1 0x4 ADD PUSH2 0xDAE SWAP2 SWAP1 PUSH2 0x1EFF JUMP JUMPDEST PUSH1 0x40 MLOAD DUP1 SWAP2 SUB SWAP1 REVERT JUMPDEST DUP1 SWAP2 POP POP SWAP2 SWAP1 POP JUMP JUMPDEST PUSH0 PUSH1 0x4 PUSH0 DUP4 DUP2 MSTORE PUSH1 0x20 ADD SWAP1 DUP2 MSTORE PUSH1 0x20 ADD PUSH0 KECCAK256 PUSH0 SWAP1 SLOAD SWAP1 PUSH2 0x100 EXP SWAP1 DIV PUSH20 0xFFFFFFFFFFFFFFFFFFFFFFFFFFFFFFFFFFFFFFFF AND SWAP1 POP SWAP2 SWAP1 POP JUMP JUMPDEST PUSH0 CALLER SWAP1 POP SWAP1 JUMP JUMPDEST PUSH2 0xE0D DUP4 DUP4 DUP4 PUSH1 0x1 PUSH2 0x1468 JUMP JUMPDEST POP POP POP JUMP JUMPDEST PUSH0 PUSH0 PUSH2 0xE1D DUP5 PUSH2 0x142F JUMP JUMPDEST SWAP1 POP PUSH0 PUSH20 0xFFFFFFFFFFFFFFFFFFFFFFFFFFFFFFFFFFFFFFFF AND DUP4 PUSH20 0xFFFFFFFFFFFFFFFFFFFFFFFFFFFFFFFFFFFFFFFF AND EQ PUSH2 0xE5E JUMPI PUSH2 0xE5D DUP2 DUP5 DUP7 PUSH2 0x1627 JUMP JUMPDEST JUMPDEST PUSH0 PUSH20 0xFFFFFFFFFFFFFFFFFFFFFFFFFFFFFFFFFFFFFFFF AND DUP2 PUSH20 0xFFFFFFFFFFFFFFFFFFFFFFFFFFFFFFFFFFFFFFFF AND EQ PUSH2 0xEE9 JUMPI PUSH2 0xE9D PUSH0 DUP6 PUSH0 PUSH0 PUSH2 0x1468 JUMP JUMPDEST PUSH1 0x1 PUSH1 0x3 PUSH0 DUP4 PUSH20 0xFFFFFFFFFFFFFFFFFFFFFFFFFFFFFFFFFFFFFFFF AND PUSH20 0xFFFFFFFFFFFFFFFFFFFFFFFFFFFFFFFFFFFFFFFF AND DUP2 MSTORE PUSH1 0x20 ADD SWAP1 DUP2 MSTORE PUSH1 0x20 ADD PUSH0 KECCAK256 PUSH0 DUP3 DUP3 SLOAD SUB SWAP3 POP POP DUP2 SWAP1 SSTORE POP JUMPDEST PUSH0 PUSH20 0xFFFFFFFFFFFFFFFFFFFFFFFFFFFFFFFFFFFFFFFF AND DUP6 PUSH20 0xFFFFFFFFFFFFFFFFFFFFFFFFFFFFFFFFFFFFFFFF AND EQ PUSH2 0xF68 JUMPI PUSH1 0x1 PUSH1 0x3 PUSH0 DUP8 PUSH20 0xFFFFFFFFFFFFFFFFFFFFFFFFFFFFFFFFFFFFFFFF AND PUSH20 0xFFFFFFFFFFFFFFFFFFFFFFFFFFFFFFFFFFFFFFFF AND DUP2 MSTORE PUSH1 0x20 ADD SWAP1 DUP2 MSTORE PUSH1 0x20 ADD PUSH0 KECCAK256 PUSH0 DUP3 DUP3 SLOAD ADD SWAP3 POP POP DUP2 SWAP1 SSTORE POP JUMPDEST DUP5 PUSH1 0x2 PUSH0 DUP7 DUP2 MSTORE PUSH1 0x20 ADD SWAP1 DUP2 MSTORE PUSH1 0x20 ADD PUSH0 KECCAK256 PUSH0 PUSH2 0x100 EXP DUP2 SLOAD DUP2 PUSH20 0xFFFFFFFFFFFFFFFFFFFFFFFFFFFFFFFFFFFFFFFF MUL NOT AND SWAP1 DUP4 PUSH20 0xFFFFFFFFFFFFFFFFFFFFFFFFFFFFFFFFFFFFFFFF AND MUL OR SWAP1 SSTORE POP DUP4 DUP6 PUSH20 0xFFFFFFFFFFFFFFFFFFFFFFFFFFFFFFFFFFFFFFFF AND DUP3 PUSH20 0xFFFFFFFFFFFFFFFFFFFFFFFFFFFFFFFFFFFFFFFF AND PUSH32 0xDDF252AD1BE2C89B69C2B068FC378DAA952BA7F163C4A11628F55A4DF523B3EF PUSH1 0x40 MLOAD PUSH1 0x40 MLOAD DUP1 SWAP2 SUB SWAP1 LOG4 DUP1 SWAP2 POP POP SWAP4 SWAP3 POP POP POP JUMP JUMPDEST PUSH2 0x1036 DUP3 DUP3 PUSH1 0x40 MLOAD DUP1 PUSH1 0x20 ADD PUSH1 0x40 MSTORE DUP1 PUSH0 DUP2 MSTORE POP PUSH2 0x16EA JUMP JUMPDEST POP POP JUMP JUMPDEST PUSH0 PUSH20 0xFFFFFFFFFFFFFFFFFFFFFFFFFFFFFFFFFFFFFFFF AND DUP3 PUSH20 0xFFFFFFFFFFFFFFFFFFFFFFFFFFFFFFFFFFFFFFFF AND SUB PUSH2 0x10AA JUMPI DUP2 PUSH1 0x40 MLOAD PUSH32 0x5B08BA1800000000000000000000000000000000000000000000000000000000 DUP2 MSTORE PUSH1 0x4 ADD PUSH2 0x10A1 SWAP2 SWAP1 PUSH2 0x1C02 JUMP JUMPDEST PUSH1 0x40 MLOAD DUP1 SWAP2 SUB SWAP1 REVERT JUMPDEST DUP1 PUSH1 0x5 PUSH0 DUP6 PUSH20 0xFFFFFFFFFFFFFFFFFFFFFFFFFFFFFFFFFFFFFFFF AND PUSH20 0xFFFFFFFFFFFFFFFFFFFFFFFFFFFFFFFFFFFFFFFF AND DUP2 MSTORE PUSH1 0x20 ADD SWAP1 DUP2 MSTORE PUSH1 0x20 ADD PUSH0 KECCAK256 PUSH0 DUP5 PUSH20 0xFFFFFFFFFFFFFFFFFFFFFFFFFFFFFFFFFFFFFFFF AND PUSH20 0xFFFFFFFFFFFFFFFFFFFFFFFFFFFFFFFFFFFFFFFF AND DUP2 MSTORE PUSH1 0x20 ADD SWAP1 DUP2 MSTORE PUSH1 0x20 ADD PUSH0 KECCAK256 PUSH0 PUSH2 0x100 EXP DUP2 SLOAD DUP2 PUSH1 0xFF MUL NOT AND SWAP1 DUP4 ISZERO ISZERO MUL OR SWAP1 SSTORE POP DUP2 PUSH20 0xFFFFFFFFFFFFFFFFFFFFFFFFFFFFFFFFFFFFFFFF AND DUP4 PUSH20 0xFFFFFFFFFFFFFFFFFFFFFFFFFFFFFFFFFFFFFFFF AND PUSH32 0x17307EAB39AB6107E8899845AD3D59BD9653F200F220920489CA2B5937696C31 DUP4 PUSH1 0x40 MLOAD PUSH2 0x1196 SWAP2 SWAP1 PUSH2 0x1ABC JUMP JUMPDEST PUSH1 0x40 MLOAD DUP1 SWAP2 SUB SWAP1 LOG3 POP POP POP JUMP JUMPDEST PUSH0 DUP4 PUSH20 0xFFFFFFFFFFFFFFFFFFFFFFFFFFFFFFFFFFFFFFFF AND EXTCODESIZE GT ISZERO PUSH2 0x1348 JUMPI DUP3 PUSH20 0xFFFFFFFFFFFFFFFFFFFFFFFFFFFFFFFFFFFFFFFF AND PUSH4 0x150B7A02 DUP7 DUP7 DUP6 DUP6 PUSH1 0x40 MLOAD DUP6 PUSH4 0xFFFFFFFF AND PUSH1 0xE0 SHL DUP2 MSTORE PUSH1 0x4 ADD PUSH2 0x1201 SWAP5 SWAP4 SWAP3 SWAP2 SWAP1 PUSH2 0x2706 JUMP JUMPDEST PUSH1 0x20 PUSH1 0x40 MLOAD DUP1 DUP4 SUB DUP2 PUSH0 DUP8 GAS CALL SWAP3 POP POP POP DUP1 ISZERO PUSH2 0x123C JUMPI POP PUSH1 0x40 MLOAD RETURNDATASIZE PUSH1 0x1F NOT PUSH1 0x1F DUP3 ADD AND DUP3 ADD DUP1 PUSH1 0x40 MSTORE POP DUP2 ADD SWAP1 PUSH2 0x1239 SWAP2 SWAP1 PUSH2 0x2764 JUMP JUMPDEST PUSH1 0x1 JUMPDEST PUSH2 0x12BD JUMPI RETURNDATASIZE DUP1 PUSH0 DUP2 EQ PUSH2 0x126A JUMPI PUSH1 0x40 MLOAD SWAP2 POP PUSH1 0x1F NOT PUSH1 0x3F RETURNDATASIZE ADD AND DUP3 ADD PUSH1 0x40 MSTORE RETURNDATASIZE DUP3 MSTORE RETURNDATASIZE PUSH0 PUSH1 0x20 DUP5 ADD RETURNDATACOPY PUSH2 0x126F JUMP JUMPDEST PUSH1 0x60 SWAP2 POP JUMPDEST POP PUSH0 DUP2 MLOAD SUB PUSH2 0x12B5 JUMPI DUP4 PUSH1 0x40 MLOAD PUSH32 0x64A0AE9200000000000000000000000000000000000000000000000000000000 DUP2 MSTORE PUSH1 0x4 ADD PUSH2 0x12AC SWAP2 SWAP1 PUSH2 0x1C02 JUMP JUMPDEST PUSH1 0x40 MLOAD DUP1 SWAP2 SUB SWAP1 REVERT JUMPDEST DUP1 MLOAD DUP2 PUSH1 0x20 ADD REVERT JUMPDEST PUSH4 0x150B7A02 PUSH1 0xE0 SHL PUSH28 0xFFFFFFFFFFFFFFFFFFFFFFFFFFFFFFFFFFFFFFFFFFFFFFFFFFFFFFFF NOT AND DUP2 PUSH28 0xFFFFFFFFFFFFFFFFFFFFFFFFFFFFFFFFFFFFFFFFFFFFFFFFFFFFFFFF NOT AND EQ PUSH2 0x1346 JUMPI DUP4 PUSH1 0x40 MLOAD PUSH32 0x64A0AE9200000000000000000000000000000000000000000000000000000000 DUP2 MSTORE PUSH1 0x4 ADD PUSH2 0x133D SWAP2 SWAP1 PUSH2 0x1C02 JUMP JUMPDEST PUSH1 0x40 MLOAD DUP1 SWAP2 SUB SWAP1 REVERT JUMPDEST POP JUMPDEST POP POP POP POP POP JUMP JUMPDEST PUSH1 0x60 PUSH1 0x40 MLOAD DUP1 PUSH1 0x20 ADD PUSH1 0x40 MSTORE DUP1 PUSH0 DUP2 MSTORE POP SWAP1 POP SWAP1 JUMP JUMPDEST PUSH1 0x60 PUSH0 PUSH1 0x1 PUSH2 0x1373 DUP5 PUSH2 0x170D JUMP JUMPDEST ADD SWAP1 POP PUSH0 DUP2 PUSH8 0xFFFFFFFFFFFFFFFF DUP2 GT ISZERO PUSH2 0x1391 JUMPI PUSH2 0x1390 PUSH2 0x1D19 JUMP JUMPDEST JUMPDEST PUSH1 0x40 MLOAD SWAP1 DUP1 DUP3 MSTORE DUP1 PUSH1 0x1F ADD PUSH1 0x1F NOT AND PUSH1 0x20 ADD DUP3 ADD PUSH1 0x40 MSTORE DUP1 ISZERO PUSH2 0x13C3 JUMPI DUP2 PUSH1 0x20 ADD PUSH1 0x1 DUP3 MUL DUP1 CALLDATASIZE DUP4 CALLDATACOPY DUP1 DUP3 ADD SWAP2 POP POP SWAP1 POP JUMPDEST POP SWAP1 POP PUSH0 DUP3 PUSH1 0x20 ADD DUP3 ADD SWAP1 POP JUMPDEST PUSH1 0x1 ISZERO PUSH2 0x1424 JUMPI DUP1 DUP1 PUSH1 0x1 SWAP1 SUB SWAP2 POP POP PUSH32 0x3031323334353637383961626364656600000000000000000000000000000000 PUSH1 0xA DUP7 MOD BYTE DUP2 MSTORE8 PUSH1 0xA DUP6 DUP2 PUSH2 0x1419 JUMPI PUSH2 0x1418 PUSH2 0x278F JUMP JUMPDEST JUMPDEST DIV SWAP5 POP PUSH0 DUP6 SUB PUSH2 0x13D0 JUMPI JUMPDEST DUP2 SWAP4 POP POP POP POP SWAP2 SWAP1 POP JUMP JUMPDEST PUSH0 PUSH1 0x2 PUSH0 DUP4 DUP2 MSTORE PUSH1 0x20 ADD SWAP1 DUP2 MSTORE PUSH1 0x20 ADD PUSH0 KECCAK256 PUSH0 SWAP1 SLOAD SWAP1 PUSH2 0x100 EXP SWAP1 DIV PUSH20 0xFFFFFFFFFFFFFFFFFFFFFFFFFFFFFFFFFFFFFFFF AND SWAP1 POP SWAP2 SWAP1 POP JUMP JUMPDEST DUP1 DUP1 PUSH2 0x14A0 JUMPI POP PUSH0 PUSH20 0xFFFFFFFFFFFFFFFFFFFFFFFFFFFFFFFFFFFFFFFF AND DUP3 PUSH20 0xFFFFFFFFFFFFFFFFFFFFFFFFFFFFFFFFFFFFFFFF AND EQ ISZERO JUMPDEST ISZERO PUSH2 0x15D2 JUMPI PUSH0 PUSH2 0x14AF DUP5 PUSH2 0xD3A JUMP JUMPDEST SWAP1 POP PUSH0 PUSH20 0xFFFFFFFFFFFFFFFFFFFFFFFFFFFFFFFFFFFFFFFF AND DUP4 PUSH20 0xFFFFFFFFFFFFFFFFFFFFFFFFFFFFFFFFFFFFFFFF AND EQ ISZERO DUP1 ISZERO PUSH2 0x1519 JUMPI POP DUP3 PUSH20 0xFFFFFFFFFFFFFFFFFFFFFFFFFFFFFFFFFFFFFFFF AND DUP2 PUSH20 0xFFFFFFFFFFFFFFFFFFFFFFFFFFFFFFFFFFFFFFFF AND EQ ISZERO JUMPDEST DUP1 ISZERO PUSH2 0x152C JUMPI POP PUSH2 0x152A DUP2 DUP5 PUSH2 0xC1E JUMP JUMPDEST ISZERO JUMPDEST ISZERO PUSH2 0x156E JUMPI DUP3 PUSH1 0x40 MLOAD PUSH32 0xA9FBF51F00000000000000000000000000000000000000000000000000000000 DUP2 MSTORE PUSH1 0x4 ADD PUSH2 0x1565 SWAP2 SWAP1 PUSH2 0x1C02 JUMP JUMPDEST PUSH1 0x40 MLOAD DUP1 SWAP2 SUB SWAP1 REVERT JUMPDEST DUP2 ISZERO PUSH2 0x15D0 JUMPI DUP4 DUP6 PUSH20 0xFFFFFFFFFFFFFFFFFFFFFFFFFFFFFFFFFFFFFFFF AND DUP3 PUSH20 0xFFFFFFFFFFFFFFFFFFFFFFFFFFFFFFFFFFFFFFFF AND PUSH32 0x8C5BE1E5EBEC7D5BD14F71427D1E84F3DD0314C0F7B2291E5B200AC8C7C3B925 PUSH1 0x40 MLOAD PUSH1 0x40 MLOAD DUP1 SWAP2 SUB SWAP1 LOG4 JUMPDEST POP JUMPDEST DUP4 PUSH1 0x4 PUSH0 DUP6 DUP2 MSTORE PUSH1 0x20 ADD SWAP1 DUP2 MSTORE PUSH1 0x20 ADD PUSH0 KECCAK256 PUSH0 PUSH2 0x100 EXP DUP2 SLOAD DUP2 PUSH20 0xFFFFFFFFFFFFFFFFFFFFFFFFFFFFFFFFFFFFFFFF MUL NOT AND SWAP1 DUP4 PUSH20 0xFFFFFFFFFFFFFFFFFFFFFFFFFFFFFFFFFFFFFFFF AND MUL OR SWAP1 SSTORE POP POP POP POP POP JUMP JUMPDEST PUSH2 0x1632 DUP4 DUP4 DUP4 PUSH2 0x185E JUMP JUMPDEST PUSH2 0x16E5 JUMPI PUSH0 PUSH20 0xFFFFFFFFFFFFFFFFFFFFFFFFFFFFFFFFFFFFFFFF AND DUP4 PUSH20 0xFFFFFFFFFFFFFFFFFFFFFFFFFFFFFFFFFFFFFFFF AND SUB PUSH2 0x16A6 JUMPI DUP1 PUSH1 0x40 MLOAD PUSH32 0x7E27328900000000000000000000000000000000000000000000000000000000 DUP2 MSTORE PUSH1 0x4 ADD PUSH2 0x169D SWAP2 SWAP1 PUSH2 0x1EFF JUMP JUMPDEST PUSH1 0x40 MLOAD DUP1 SWAP2 SUB SWAP1 REVERT JUMPDEST DUP2 DUP2 PUSH1 0x40 MLOAD PUSH32 0x177E802F00000000000000000000000000000000000000000000000000000000 DUP2 MSTORE PUSH1 0x4 ADD PUSH2 0x16DC SWAP3 SWAP2 SWAP1 PUSH2 0x27BC JUMP JUMPDEST PUSH1 0x40 MLOAD DUP1 SWAP2 SUB SWAP1 REVERT JUMPDEST POP POP POP JUMP JUMPDEST PUSH2 0x16F4 DUP4 DUP4 PUSH2 0x191E JUMP JUMPDEST PUSH2 0x1708 PUSH2 0x16FF PUSH2 0xDF9 JUMP JUMPDEST PUSH0 DUP6 DUP6 DUP6 PUSH2 0x11A3 JUMP JUMPDEST POP POP POP JUMP JUMPDEST PUSH0 PUSH0 PUSH0 SWAP1 POP PUSH27 0x184F03E93FF9F4DAA797ED6E38ED64BF6A1F010000000000000000 DUP4 LT PUSH2 0x1769 JUMPI PUSH27 0x184F03E93FF9F4DAA797ED6E38ED64BF6A1F010000000000000000 DUP4 DUP2 PUSH2 0x175F JUMPI PUSH2 0x175E PUSH2 0x278F JUMP JUMPDEST JUMPDEST DIV SWAP3 POP PUSH1 0x40 DUP2 ADD SWAP1 POP JUMPDEST PUSH14 0x4EE2D6D415B85ACEF8100000000 DUP4 LT PUSH2 0x17A6 JUMPI PUSH14 0x4EE2D6D415B85ACEF8100000000 DUP4 DUP2 PUSH2 0x179C JUMPI PUSH2 0x179B PUSH2 0x278F JUMP JUMPDEST JUMPDEST DIV SWAP3 POP PUSH1 0x20 DUP2 ADD SWAP1 POP JUMPDEST PUSH7 0x2386F26FC10000 DUP4 LT PUSH2 0x17D5 JUMPI PUSH7 0x2386F26FC10000 DUP4 DUP2 PUSH2 0x17CB JUMPI PUSH2 0x17CA PUSH2 0x278F JUMP JUMPDEST JUMPDEST DIV SWAP3 POP PUSH1 0x10 DUP2 ADD SWAP1 POP JUMPDEST PUSH4 0x5F5E100 DUP4 LT PUSH2 0x17FE JUMPI PUSH4 0x5F5E100 DUP4 DUP2 PUSH2 0x17F4 JUMPI PUSH2 0x17F3 PUSH2 0x278F JUMP JUMPDEST JUMPDEST DIV SWAP3 POP PUSH1 0x8 DUP2 ADD SWAP1 POP JUMPDEST PUSH2 0x2710 DUP4 LT PUSH2 0x1823 JUMPI PUSH2 0x2710 DUP4 DUP2 PUSH2 0x1819 JUMPI PUSH2 0x1818 PUSH2 0x278F JUMP JUMPDEST JUMPDEST DIV SWAP3 POP PUSH1 0x4 DUP2 ADD SWAP1 POP JUMPDEST PUSH1 0x64 DUP4 LT PUSH2 0x1846 JUMPI PUSH1 0x64 DUP4 DUP2 PUSH2 0x183C JUMPI PUSH2 0x183B PUSH2 0x278F JUMP JUMPDEST JUMPDEST DIV SWAP3 POP PUSH1 0x2 DUP2 ADD SWAP1 POP JUMPDEST PUSH1 0xA DUP4 LT PUSH2 0x1855 JUMPI PUSH1 0x1 DUP2 ADD SWAP1 POP JUMPDEST DUP1 SWAP2 POP POP SWAP2 SWAP1 POP JUMP JUMPDEST PUSH0 PUSH0 PUSH20 0xFFFFFFFFFFFFFFFFFFFFFFFFFFFFFFFFFFFFFFFF AND DUP4 PUSH20 0xFFFFFFFFFFFFFFFFFFFFFFFFFFFFFFFFFFFFFFFF AND EQ ISZERO DUP1 ISZERO PUSH2 0x1915 JUMPI POP DUP3 PUSH20 0xFFFFFFFFFFFFFFFFFFFFFFFFFFFFFFFFFFFFFFFF AND DUP5 PUSH20 0xFFFFFFFFFFFFFFFFFFFFFFFFFFFFFFFFFFFFFFFF AND EQ DUP1 PUSH2 0x18D6 JUMPI POP PUSH2 0x18D5 DUP5 DUP5 PUSH2 0xC1E JUMP JUMPDEST JUMPDEST DUP1 PUSH2 0x1914 JUMPI POP DUP3 PUSH20 0xFFFFFFFFFFFFFFFFFFFFFFFFFFFFFFFFFFFFFFFF AND PUSH2 0x18FC DUP4 PUSH2 0xDC0 JUMP JUMPDEST PUSH20 0xFFFFFFFFFFFFFFFFFFFFFFFFFFFFFFFFFFFFFFFF AND EQ JUMPDEST JUMPDEST SWAP1 POP SWAP4 SWAP3 POP POP POP JUMP JUMPDEST PUSH0 PUSH20 0xFFFFFFFFFFFFFFFFFFFFFFFFFFFFFFFFFFFFFFFF AND DUP3 PUSH20 0xFFFFFFFFFFFFFFFFFFFFFFFFFFFFFFFFFFFFFFFF AND SUB PUSH2 0x198E JUMPI PUSH0 PUSH1 0x40 MLOAD PUSH32 0x64A0AE9200000000000000000000000000000000000000000000000000000000 DUP2 MSTORE PUSH1 0x4 ADD PUSH2 0x1985 SWAP2 SWAP1 PUSH2 0x1C02 JUMP JUMPDEST PUSH1 0x40 MLOAD DUP1 SWAP2 SUB SWAP1 REVERT JUMPDEST PUSH0 PUSH2 0x199A DUP4 DUP4 PUSH0 PUSH2 0xE12 JUMP JUMPDEST SWAP1 POP PUSH0 PUSH20 0xFFFFFFFFFFFFFFFFFFFFFFFFFFFFFFFFFFFFFFFF AND DUP2 PUSH20 0xFFFFFFFFFFFFFFFFFFFFFFFFFFFFFFFFFFFFFFFF AND EQ PUSH2 0x1A0C JUMPI PUSH0 PUSH1 0x40 MLOAD PUSH32 0x73C6AC6E00000000000000000000000000000000000000000000000000000000 DUP2 MSTORE PUSH1 0x4 ADD PUSH2 0x1A03 SWAP2 SWAP1 PUSH2 0x1C02 JUMP JUMPDEST PUSH1 0x40 MLOAD DUP1 SWAP2 SUB SWAP1 REVERT JUMPDEST POP POP POP JUMP JUMPDEST PUSH0 PUSH1 0x40 MLOAD SWAP1 POP SWAP1 JUMP JUMPDEST PUSH0 PUSH0 REVERT JUMPDEST PUSH0 PUSH0 REVERT JUMPDEST PUSH0 PUSH32 0xFFFFFFFF00000000000000000000000000000000000000000000000000000000 DUP3 AND SWAP1 POP SWAP2 SWAP1 POP JUMP JUMPDEST PUSH2 0x1A56 DUP2 PUSH2 0x1A22 JUMP JUMPDEST DUP2 EQ PUSH2 0x1A60 JUMPI PUSH0 PUSH0 REVERT JUMPDEST POP JUMP JUMPDEST PUSH0 DUP2 CALLDATALOAD SWAP1 POP PUSH2 0x1A71 DUP2 PUSH2 0x1A4D JUMP JUMPDEST SWAP3 SWAP2 POP POP JUMP JUMPDEST PUSH0 PUSH1 0x20 DUP3 DUP5 SUB SLT ISZERO PUSH2 0x1A8C JUMPI PUSH2 0x1A8B PUSH2 0x1A1A JUMP JUMPDEST JUMPDEST PUSH0 PUSH2 0x1A99 DUP5 DUP3 DUP6 ADD PUSH2 0x1A63 JUMP JUMPDEST SWAP2 POP POP SWAP3 SWAP2 POP POP JUMP JUMPDEST PUSH0 DUP2 ISZERO ISZERO SWAP1 POP SWAP2 SWAP1 POP JUMP JUMPDEST PUSH2 0x1AB6 DUP2 PUSH2 0x1AA2 JUMP JUMPDEST DUP3 MSTORE POP POP JUMP JUMPDEST PUSH0 PUSH1 0x20 DUP3 ADD SWAP1 POP PUSH2 0x1ACF PUSH0 DUP4 ADD DUP5 PUSH2 0x1AAD JUMP JUMPDEST SWAP3 SWAP2 POP POP JUMP JUMPDEST PUSH0 DUP2 MLOAD SWAP1 POP SWAP2 SWAP1 POP JUMP JUMPDEST PUSH0 DUP3 DUP3 MSTORE PUSH1 0x20 DUP3 ADD SWAP1 POP SWAP3 SWAP2 POP POP JUMP JUMPDEST DUP3 DUP2 DUP4 MCOPY PUSH0 DUP4 DUP4 ADD MSTORE POP POP POP JUMP JUMPDEST PUSH0 PUSH1 0x1F NOT PUSH1 0x1F DUP4 ADD AND SWAP1 POP SWAP2 SWAP1 POP JUMP JUMPDEST PUSH0 PUSH2 0x1B17 DUP3 PUSH2 0x1AD5 JUMP JUMPDEST PUSH2 0x1B21 DUP2 DUP6 PUSH2 0x1ADF JUMP JUMPDEST SWAP4 POP PUSH2 0x1B31 DUP2 DUP6 PUSH1 0x20 DUP7 ADD PUSH2 0x1AEF JUMP JUMPDEST PUSH2 0x1B3A DUP2 PUSH2 0x1AFD JUMP JUMPDEST DUP5 ADD SWAP2 POP POP SWAP3 SWAP2 POP POP JUMP JUMPDEST PUSH0 PUSH1 0x20 DUP3 ADD SWAP1 POP DUP2 DUP2 SUB PUSH0 DUP4 ADD MSTORE PUSH2 0x1B5D DUP2 DUP5 PUSH2 0x1B0D JUMP JUMPDEST SWAP1 POP SWAP3 SWAP2 POP POP JUMP JUMPDEST PUSH0 DUP2 SWAP1 POP SWAP2 SWAP1 POP JUMP JUMPDEST PUSH2 0x1B77 DUP2 PUSH2 0x1B65 JUMP JUMPDEST DUP2 EQ PUSH2 0x1B81 JUMPI PUSH0 PUSH0 REVERT JUMPDEST POP JUMP JUMPDEST PUSH0 DUP2 CALLDATALOAD SWAP1 POP PUSH2 0x1B92 DUP2 PUSH2 0x1B6E JUMP JUMPDEST SWAP3 SWAP2 POP POP JUMP JUMPDEST PUSH0 PUSH1 0x20 DUP3 DUP5 SUB SLT ISZERO PUSH2 0x1BAD JUMPI PUSH2 0x1BAC PUSH2 0x1A1A JUMP JUMPDEST JUMPDEST PUSH0 PUSH2 0x1BBA DUP5 DUP3 DUP6 ADD PUSH2 0x1B84 JUMP JUMPDEST SWAP2 POP POP SWAP3 SWAP2 POP POP JUMP JUMPDEST PUSH0 PUSH20 0xFFFFFFFFFFFFFFFFFFFFFFFFFFFFFFFFFFFFFFFF DUP3 AND SWAP1 POP SWAP2 SWAP1 POP JUMP JUMPDEST PUSH0 PUSH2 0x1BEC DUP3 PUSH2 0x1BC3 JUMP JUMPDEST SWAP1 POP SWAP2 SWAP1 POP JUMP JUMPDEST PUSH2 0x1BFC DUP2 PUSH2 0x1BE2 JUMP JUMPDEST DUP3 MSTORE POP POP JUMP JUMPDEST PUSH0 PUSH1 0x20 DUP3 ADD SWAP1 POP PUSH2 0x1C15 PUSH0 DUP4 ADD DUP5 PUSH2 0x1BF3 JUMP JUMPDEST SWAP3 SWAP2 POP POP JUMP JUMPDEST PUSH2 0x1C24 DUP2 PUSH2 0x1BE2 JUMP JUMPDEST DUP2 EQ PUSH2 0x1C2E JUMPI PUSH0 PUSH0 REVERT JUMPDEST POP JUMP JUMPDEST PUSH0 DUP2 CALLDATALOAD SWAP1 POP PUSH2 0x1C3F DUP2 PUSH2 0x1C1B JUMP JUMPDEST SWAP3 SWAP2 POP POP JUMP JUMPDEST PUSH0 PUSH0 PUSH1 0x40 DUP4 DUP6 SUB SLT ISZERO PUSH2 0x1C5B JUMPI PUSH2 0x1C5A PUSH2 0x1A1A JUMP JUMPDEST JUMPDEST PUSH0 PUSH2 0x1C68 DUP6 DUP3 DUP7 ADD PUSH2 0x1C31 JUMP JUMPDEST SWAP3 POP POP PUSH1 0x20 PUSH2 0x1C79 DUP6 DUP3 DUP7 ADD PUSH2 0x1B84 JUMP JUMPDEST SWAP2 POP POP SWAP3 POP SWAP3 SWAP1 POP JUMP JUMPDEST PUSH0 PUSH0 PUSH0 PUSH1 0x60 DUP5 DUP7 SUB SLT ISZERO PUSH2 0x1C9A JUMPI PUSH2 0x1C99 PUSH2 0x1A1A JUMP JUMPDEST JUMPDEST PUSH0 PUSH2 0x1CA7 DUP7 DUP3 DUP8 ADD PUSH2 0x1C31 JUMP JUMPDEST SWAP4 POP POP PUSH1 0x20 PUSH2 0x1CB8 DUP7 DUP3 DUP8 ADD PUSH2 0x1C31 JUMP JUMPDEST SWAP3 POP POP PUSH1 0x40 PUSH2 0x1CC9 DUP7 DUP3 DUP8 ADD PUSH2 0x1B84 JUMP JUMPDEST SWAP2 POP POP SWAP3 POP SWAP3 POP SWAP3 JUMP JUMPDEST PUSH0 PUSH0 PUSH1 0x40 DUP4 DUP6 SUB SLT ISZERO PUSH2 0x1CE9 JUMPI PUSH2 0x1CE8 PUSH2 0x1A1A JUMP JUMPDEST JUMPDEST PUSH0 PUSH2 0x1CF6 DUP6 DUP3 DUP7 ADD PUSH2 0x1B84 JUMP JUMPDEST SWAP3 POP POP PUSH1 0x20 PUSH2 0x1D07 DUP6 DUP3 DUP7 ADD PUSH2 0x1B84 JUMP JUMPDEST SWAP2 POP POP SWAP3 POP SWAP3 SWAP1 POP JUMP JUMPDEST PUSH0 PUSH0 REVERT JUMPDEST PUSH0 PUSH0 REVERT JUMPDEST PUSH32 0x4E487B7100000000000000000000000000000000000000000000000000000000 PUSH0 MSTORE PUSH1 0x41 PUSH1 0x4 MSTORE PUSH1 0x24 PUSH0 REVERT JUMPDEST PUSH2 0x1D4F DUP3 PUSH2 0x1AFD JUMP JUMPDEST DUP2 ADD DUP2 DUP2 LT PUSH8 0xFFFFFFFFFFFFFFFF DUP3 GT OR ISZERO PUSH2 0x1D6E JUMPI PUSH2 0x1D6D PUSH2 0x1D19 JUMP JUMPDEST JUMPDEST DUP1 PUSH1 0x40 MSTORE POP POP POP JUMP JUMPDEST PUSH0 PUSH2 0x1D80 PUSH2 0x1A11 JUMP JUMPDEST SWAP1 POP PUSH2 0x1D8C DUP3 DUP3 PUSH2 0x1D46 JUMP JUMPDEST SWAP2 SWAP1 POP JUMP JUMPDEST PUSH0 PUSH8 0xFFFFFFFFFFFFFFFF DUP3 GT ISZERO PUSH2 0x1DAB JUMPI PUSH2 0x1DAA PUSH2 0x1D19 JUMP JUMPDEST JUMPDEST PUSH2 0x1DB4 DUP3 PUSH2 0x1AFD JUMP JUMPDEST SWAP1 POP PUSH1 0x20 DUP2 ADD SWAP1 POP SWAP2 SWAP1 POP JUMP JUMPDEST DUP3 DUP2 DUP4 CALLDATACOPY PUSH0 DUP4 DUP4 ADD MSTORE POP POP POP JUMP JUMPDEST PUSH0 PUSH2 0x1DE1 PUSH2 0x1DDC DUP5 PUSH2 0x1D91 JUMP JUMPDEST PUSH2 0x1D77 JUMP JUMPDEST SWAP1 POP DUP3 DUP2 MSTORE PUSH1 0x20 DUP2 ADD DUP5 DUP5 DUP5 ADD GT ISZERO PUSH2 0x1DFD JUMPI PUSH2 0x1DFC PUSH2 0x1D15 JUMP JUMPDEST JUMPDEST PUSH2 0x1E08 DUP5 DUP3 DUP6 PUSH2 0x1DC1 JUMP JUMPDEST POP SWAP4 SWAP3 POP POP POP JUMP JUMPDEST PUSH0 DUP3 PUSH1 0x1F DUP4 ADD SLT PUSH2 0x1E24 JUMPI PUSH2 0x1E23 PUSH2 0x1D11 JUMP JUMPDEST JUMPDEST DUP2 CALLDATALOAD PUSH2 0x1E34 DUP5 DUP3 PUSH1 0x20 DUP7 ADD PUSH2 0x1DCF JUMP JUMPDEST SWAP2 POP POP SWAP3 SWAP2 POP POP JUMP JUMPDEST PUSH0 PUSH0 PUSH0 PUSH1 0x60 DUP5 DUP7 SUB SLT ISZERO PUSH2 0x1E54 JUMPI PUSH2 0x1E53 PUSH2 0x1A1A JUMP JUMPDEST JUMPDEST PUSH0 DUP5 ADD CALLDATALOAD PUSH8 0xFFFFFFFFFFFFFFFF DUP2 GT ISZERO PUSH2 0x1E71 JUMPI PUSH2 0x1E70 PUSH2 0x1A1E JUMP JUMPDEST JUMPDEST PUSH2 0x1E7D DUP7 DUP3 DUP8 ADD PUSH2 0x1E10 JUMP JUMPDEST SWAP4 POP POP PUSH1 0x20 PUSH2 0x1E8E DUP7 DUP3 DUP8 ADD PUSH2 0x1C31 JUMP JUMPDEST SWAP3 POP POP PUSH1 0x40 DUP5 ADD CALLDATALOAD PUSH8 0xFFFFFFFFFFFFFFFF DUP2 GT ISZERO PUSH2 0x1EAF JUMPI PUSH2 0x1EAE PUSH2 0x1A1E JUMP JUMPDEST JUMPDEST PUSH2 0x1EBB DUP7 DUP3 DUP8 ADD PUSH2 0x1E10 JUMP JUMPDEST SWAP2 POP POP SWAP3 POP SWAP3 POP SWAP3 JUMP JUMPDEST PUSH0 PUSH1 0x20 DUP3 DUP5 SUB SLT ISZERO PUSH2 0x1EDA JUMPI PUSH2 0x1ED9 PUSH2 0x1A1A JUMP JUMPDEST JUMPDEST PUSH0 PUSH2 0x1EE7 DUP5 DUP3 DUP6 ADD PUSH2 0x1C31 JUMP JUMPDEST SWAP2 POP POP SWAP3 SWAP2 POP POP JUMP JUMPDEST PUSH2 0x1EF9 DUP2 PUSH2 0x1B65 JUMP JUMPDEST DUP3 MSTORE POP POP JUMP JUMPDEST PUSH0 PUSH1 0x20 DUP3 ADD SWAP1 POP PUSH2 0x1F12 PUSH0 DUP4 ADD DUP5 PUSH2 0x1EF0 JUMP JUMPDEST SWAP3 SWAP2 POP POP JUMP JUMPDEST PUSH0 PUSH1 0x60 DUP3 ADD SWAP1 POP DUP2 DUP2 SUB PUSH0 DUP4 ADD MSTORE PUSH2 0x1F30 DUP2 DUP7 PUSH2 0x1B0D JUMP JUMPDEST SWAP1 POP PUSH2 0x1F3F PUSH1 0x20 DUP4 ADD DUP6 PUSH2 0x1EF0 JUMP JUMPDEST DUP2 DUP2 SUB PUSH1 0x40 DUP4 ADD MSTORE PUSH2 0x1F51 DUP2 DUP5 PUSH2 0x1B0D JUMP JUMPDEST SWAP1 POP SWAP5 SWAP4 POP POP POP POP JUMP JUMPDEST PUSH2 0x1F64 DUP2 PUSH2 0x1AA2 JUMP JUMPDEST DUP2 EQ PUSH2 0x1F6E JUMPI PUSH0 PUSH0 REVERT JUMPDEST POP JUMP JUMPDEST PUSH0 DUP2 CALLDATALOAD SWAP1 POP PUSH2 0x1F7F DUP2 PUSH2 0x1F5B JUMP JUMPDEST SWAP3 SWAP2 POP POP JUMP JUMPDEST PUSH0 PUSH0 PUSH1 0x40 DUP4 DUP6 SUB SLT ISZERO PUSH2 0x1F9B JUMPI PUSH2 0x1F9A PUSH2 0x1A1A JUMP JUMPDEST JUMPDEST PUSH0 PUSH2 0x1FA8 DUP6 DUP3 DUP7 ADD PUSH2 0x1C31 JUMP JUMPDEST SWAP3 POP POP PUSH1 0x20 PUSH2 0x1FB9 DUP6 DUP3 DUP7 ADD PUSH2 0x1F71 JUMP JUMPDEST SWAP2 POP POP SWAP3 POP SWAP3 SWAP1 POP JUMP JUMPDEST PUSH0 PUSH8 0xFFFFFFFFFFFFFFFF DUP3 GT ISZERO PUSH2 0x1FDD JUMPI PUSH2 0x1FDC PUSH2 0x1D19 JUMP JUMPDEST JUMPDEST PUSH2 0x1FE6 DUP3 PUSH2 0x1AFD JUMP JUMPDEST SWAP1 POP PUSH1 0x20 DUP2 ADD SWAP1 POP SWAP2 SWAP1 POP JUMP JUMPDEST PUSH0 PUSH2 0x2005 PUSH2 0x2000 DUP5 PUSH2 0x1FC3 JUMP JUMPDEST PUSH2 0x1D77 JUMP JUMPDEST SWAP1 POP DUP3 DUP2 MSTORE PUSH1 0x20 DUP2 ADD DUP5 DUP5 DUP5 ADD GT ISZERO PUSH2 0x2021 JUMPI PUSH2 0x2020 PUSH2 0x1D15 JUMP JUMPDEST JUMPDEST PUSH2 0x202C DUP5 DUP3 DUP6 PUSH2 0x1DC1 JUMP JUMPDEST POP SWAP4 SWAP3 POP POP POP JUMP JUMPDEST PUSH0 DUP3 PUSH1 0x1F DUP4 ADD SLT PUSH2 0x2048 JUMPI PUSH2 0x2047 PUSH2 0x1D11 JUMP JUMPDEST JUMPDEST DUP2 CALLDATALOAD PUSH2 0x2058 DUP5 DUP3 PUSH1 0x20 DUP7 ADD PUSH2 0x1FF3 JUMP JUMPDEST SWAP2 POP POP SWAP3 SWAP2 POP POP JUMP JUMPDEST PUSH0 PUSH0 PUSH0 PUSH0 PUSH1 0x80 DUP6 DUP8 SUB SLT ISZERO PUSH2 0x2079 JUMPI PUSH2 0x2078 PUSH2 0x1A1A JUMP JUMPDEST JUMPDEST PUSH0 PUSH2 0x2086 DUP8 DUP3 DUP9 ADD PUSH2 0x1C31 JUMP JUMPDEST SWAP5 POP POP PUSH1 0x20 PUSH2 0x2097 DUP8 DUP3 DUP9 ADD PUSH2 0x1C31 JUMP JUMPDEST SWAP4 POP POP PUSH1 0x40 PUSH2 0x20A8 DUP8 DUP3 DUP9 ADD PUSH2 0x1B84 JUMP JUMPDEST SWAP3 POP POP PUSH1 0x60 DUP6 ADD CALLDATALOAD PUSH8 0xFFFFFFFFFFFFFFFF DUP2 GT ISZERO PUSH2 0x20C9 JUMPI PUSH2 0x20C8 PUSH2 0x1A1E JUMP JUMPDEST JUMPDEST PUSH2 0x20D5 DUP8 DUP3 DUP9 ADD PUSH2 0x2034 JUMP JUMPDEST SWAP2 POP POP SWAP3 SWAP6 SWAP2 SWAP5 POP SWAP3 POP JUMP JUMPDEST PUSH0 PUSH0 PUSH1 0x40 DUP4 DUP6 SUB SLT ISZERO PUSH2 0x20F7 JUMPI PUSH2 0x20F6 PUSH2 0x1A1A JUMP JUMPDEST JUMPDEST PUSH0 PUSH2 0x2104 DUP6 DUP3 DUP7 ADD PUSH2 0x1C31 JUMP JUMPDEST SWAP3 POP POP PUSH1 0x20 PUSH2 0x2115 DUP6 DUP3 DUP7 ADD PUSH2 0x1C31 JUMP JUMPDEST SWAP2 POP POP SWAP3 POP SWAP3 SWAP1 POP JUMP JUMPDEST PUSH32 0x4E487B7100000000000000000000000000000000000000000000000000000000 PUSH0 MSTORE PUSH1 0x22 PUSH1 0x4 MSTORE PUSH1 0x24 PUSH0 REVERT JUMPDEST PUSH0 PUSH1 0x2 DUP3 DIV SWAP1 POP PUSH1 0x1 DUP3 AND DUP1 PUSH2 0x2163 JUMPI PUSH1 0x7F DUP3 AND SWAP2 POP JUMPDEST PUSH1 0x20 DUP3 LT DUP2 SUB PUSH2 0x2176 JUMPI PUSH2 0x2175 PUSH2 0x211F JUMP JUMPDEST JUMPDEST POP SWAP2 SWAP1 POP JUMP JUMPDEST PUSH0 PUSH1 0x60 DUP3 ADD SWAP1 POP PUSH2 0x218F PUSH0 DUP4 ADD DUP7 PUSH2 0x1BF3 JUMP JUMPDEST PUSH2 0x219C PUSH1 0x20 DUP4 ADD DUP6 PUSH2 0x1EF0 JUMP JUMPDEST PUSH2 0x21A9 PUSH1 0x40 DUP4 ADD DUP5 PUSH2 0x1BF3 JUMP JUMPDEST SWAP5 SWAP4 POP POP POP POP JUMP JUMPDEST PUSH32 0x4170656E6173206F20646F6E6F20706F646520626174616C68617220636F6D20 PUSH0 DUP3 ADD MSTORE PUSH32 0x6573736520506F6B656D6F6E0000000000000000000000000000000000000000 PUSH1 0x20 DUP3 ADD MSTORE POP JUMP JUMPDEST PUSH0 PUSH2 0x220B PUSH1 0x2C DUP4 PUSH2 0x1ADF JUMP JUMPDEST SWAP2 POP PUSH2 0x2216 DUP3 PUSH2 0x21B1 JUMP JUMPDEST PUSH1 0x40 DUP3 ADD SWAP1 POP SWAP2 SWAP1 POP JUMP JUMPDEST PUSH0 PUSH1 0x20 DUP3 ADD SWAP1 POP DUP2 DUP2 SUB PUSH0 DUP4 ADD MSTORE PUSH2 0x2238 DUP2 PUSH2 0x21FF JUMP JUMPDEST SWAP1 POP SWAP2 SWAP1 POP JUMP JUMPDEST PUSH32 0x556D20506F6B656D6F6E206E616F20706F646520626174616C68617220636F6E PUSH0 DUP3 ADD MSTORE PUSH32 0x74726120656C65206D65736D6F00000000000000000000000000000000000000 PUSH1 0x20 DUP3 ADD MSTORE POP JUMP JUMPDEST PUSH0 PUSH2 0x2299 PUSH1 0x2D DUP4 PUSH2 0x1ADF JUMP JUMPDEST SWAP2 POP PUSH2 0x22A4 DUP3 PUSH2 0x223F JUMP JUMPDEST PUSH1 0x40 DUP3 ADD SWAP1 POP SWAP2 SWAP1 POP JUMP JUMPDEST PUSH0 PUSH1 0x20 DUP3 ADD SWAP1 POP DUP2 DUP2 SUB PUSH0 DUP4 ADD MSTORE PUSH2 0x22C6 DUP2 PUSH2 0x228D JUMP JUMPDEST SWAP1 POP SWAP2 SWAP1 POP JUMP JUMPDEST PUSH32 0x4E487B7100000000000000000000000000000000000000000000000000000000 PUSH0 MSTORE PUSH1 0x32 PUSH1 0x4 MSTORE PUSH1 0x24 PUSH0 REVERT JUMPDEST PUSH32 0x4E487B7100000000000000000000000000000000000000000000000000000000 PUSH0 MSTORE PUSH1 0x11 PUSH1 0x4 MSTORE PUSH1 0x24 PUSH0 REVERT JUMPDEST PUSH0 PUSH2 0x2331 DUP3 PUSH2 0x1B65 JUMP JUMPDEST SWAP2 POP PUSH2 0x233C DUP4 PUSH2 0x1B65 JUMP JUMPDEST SWAP3 POP DUP3 DUP3 ADD SWAP1 POP DUP1 DUP3 GT ISZERO PUSH2 0x2354 JUMPI PUSH2 0x2353 PUSH2 0x22FA JUMP JUMPDEST JUMPDEST SWAP3 SWAP2 POP POP JUMP JUMPDEST PUSH32 0x4170656E6173206F20646F6E6F20646F206A6F676F20706F6465206372696172 PUSH0 DUP3 ADD MSTORE PUSH32 0x206E6F766F7320506F6B656D6F6E730000000000000000000000000000000000 PUSH1 0x20 DUP3 ADD MSTORE POP JUMP JUMPDEST PUSH0 PUSH2 0x23B4 PUSH1 0x2F DUP4 PUSH2 0x1ADF JUMP JUMPDEST SWAP2 POP PUSH2 0x23BF DUP3 PUSH2 0x235A JUMP JUMPDEST PUSH1 0x40 DUP3 ADD SWAP1 POP SWAP2 SWAP1 POP JUMP JUMPDEST PUSH0 PUSH1 0x20 DUP3 ADD SWAP1 POP DUP2 DUP2 SUB PUSH0 DUP4 ADD MSTORE PUSH2 0x23E1 DUP2 PUSH2 0x23A8 JUMP JUMPDEST SWAP1 POP SWAP2 SWAP1 POP JUMP JUMPDEST PUSH0 DUP2 SWAP1 POP DUP2 PUSH0 MSTORE PUSH1 0x20 PUSH0 KECCAK256 SWAP1 POP SWAP2 SWAP1 POP JUMP JUMPDEST PUSH0 PUSH1 0x20 PUSH1 0x1F DUP4 ADD DIV SWAP1 POP SWAP2 SWAP1 POP JUMP JUMPDEST PUSH0 DUP3 DUP3 SHL SWAP1 POP SWAP3 SWAP2 POP POP JUMP JUMPDEST PUSH0 PUSH1 0x8 DUP4 MUL PUSH2 0x2444 PUSH32 0xFFFFFFFFFFFFFFFFFFFFFFFFFFFFFFFFFFFFFFFFFFFFFFFFFFFFFFFFFFFFFFFF DUP3 PUSH2 0x2409 JUMP JUMPDEST PUSH2 0x244E DUP7 DUP4 PUSH2 0x2409 JUMP JUMPDEST SWAP6 POP DUP1 NOT DUP5 AND SWAP4 POP DUP1 DUP7 AND DUP5 OR SWAP3 POP POP POP SWAP4 SWAP3 POP POP POP JUMP JUMPDEST PUSH0 DUP2 SWAP1 POP SWAP2 SWAP1 POP JUMP JUMPDEST PUSH0 PUSH2 0x2489 PUSH2 0x2484 PUSH2 0x247F DUP5 PUSH2 0x1B65 JUMP JUMPDEST PUSH2 0x2466 JUMP JUMPDEST PUSH2 0x1B65 JUMP JUMPDEST SWAP1 POP SWAP2 SWAP1 POP JUMP JUMPDEST PUSH0 DUP2 SWAP1 POP SWAP2 SWAP1 POP JUMP JUMPDEST PUSH2 0x24A2 DUP4 PUSH2 0x246F JUMP JUMPDEST PUSH2 0x24B6 PUSH2 0x24AE DUP3 PUSH2 0x2490 JUMP JUMPDEST DUP5 DUP5 SLOAD PUSH2 0x2415 JUMP JUMPDEST DUP3 SSTORE POP POP POP POP JUMP JUMPDEST PUSH0 PUSH0 SWAP1 POP SWAP1 JUMP JUMPDEST PUSH2 0x24CD PUSH2 0x24BE JUMP JUMPDEST PUSH2 0x24D8 DUP2 DUP5 DUP5 PUSH2 0x2499 JUMP JUMPDEST POP POP POP JUMP JUMPDEST JUMPDEST DUP2 DUP2 LT ISZERO PUSH2 0x24FB JUMPI PUSH2 0x24F0 PUSH0 DUP3 PUSH2 0x24C5 JUMP JUMPDEST PUSH1 0x1 DUP2 ADD SWAP1 POP PUSH2 0x24DE JUMP JUMPDEST POP POP JUMP JUMPDEST PUSH1 0x1F DUP3 GT ISZERO PUSH2 0x2540 JUMPI PUSH2 0x2511 DUP2 PUSH2 0x23E8 JUMP JUMPDEST PUSH2 0x251A DUP5 PUSH2 0x23FA JUMP JUMPDEST DUP2 ADD PUSH1 0x20 DUP6 LT ISZERO PUSH2 0x2529 JUMPI DUP2 SWAP1 POP JUMPDEST PUSH2 0x253D PUSH2 0x2535 DUP6 PUSH2 0x23FA JUMP JUMPDEST DUP4 ADD DUP3 PUSH2 0x24DD JUMP JUMPDEST POP POP JUMPDEST POP POP POP JUMP JUMPDEST PUSH0 DUP3 DUP3 SHR SWAP1 POP SWAP3 SWAP2 POP POP JUMP JUMPDEST PUSH0 PUSH2 0x2560 PUSH0 NOT DUP5 PUSH1 0x8 MUL PUSH2 0x2545 JUMP JUMPDEST NOT DUP1 DUP4 AND SWAP2 POP POP SWAP3 SWAP2 POP POP JUMP JUMPDEST PUSH0 PUSH2 0x2578 DUP4 DUP4 PUSH2 0x2551 JUMP JUMPDEST SWAP2 POP DUP3 PUSH1 0x2 MUL DUP3 OR SWAP1 POP SWAP3 SWAP2 POP POP JUMP JUMPDEST PUSH2 0x2591 DUP3 PUSH2 0x1AD5 JUMP JUMPDEST PUSH8 0xFFFFFFFFFFFFFFFF DUP2 GT ISZERO PUSH2 0x25AA JUMPI PUSH2 0x25A9 PUSH2 0x1D19 JUMP JUMPDEST JUMPDEST PUSH2 0x25B4 DUP3 SLOAD PUSH2 0x214C JUMP JUMPDEST PUSH2 0x25BF DUP3 DUP3 DUP6 PUSH2 0x24FF JUMP JUMPDEST PUSH0 PUSH1 0x20 SWAP1 POP PUSH1 0x1F DUP4 GT PUSH1 0x1 DUP2 EQ PUSH2 0x25F0 JUMPI PUSH0 DUP5 ISZERO PUSH2 0x25DE JUMPI DUP3 DUP8 ADD MLOAD SWAP1 POP JUMPDEST PUSH2 0x25E8 DUP6 DUP3 PUSH2 0x256D JUMP JUMPDEST DUP7 SSTORE POP PUSH2 0x264F JUMP JUMPDEST PUSH1 0x1F NOT DUP5 AND PUSH2 0x25FE DUP7 PUSH2 0x23E8 JUMP JUMPDEST PUSH0 JUMPDEST DUP3 DUP2 LT ISZERO PUSH2 0x2625 JUMPI DUP5 DUP10 ADD MLOAD DUP3 SSTORE PUSH1 0x1 DUP3 ADD SWAP2 POP PUSH1 0x20 DUP6 ADD SWAP5 POP PUSH1 0x20 DUP2 ADD SWAP1 POP PUSH2 0x2600 JUMP JUMPDEST DUP7 DUP4 LT ISZERO PUSH2 0x2642 JUMPI DUP5 DUP10 ADD MLOAD PUSH2 0x263E PUSH1 0x1F DUP10 AND DUP3 PUSH2 0x2551 JUMP JUMPDEST DUP4 SSTORE POP JUMPDEST PUSH1 0x1 PUSH1 0x2 DUP9 MUL ADD DUP9 SSTORE POP POP POP JUMPDEST POP POP POP POP POP POP JUMP JUMPDEST PUSH0 DUP2 SWAP1 POP SWAP3 SWAP2 POP POP JUMP JUMPDEST PUSH0 PUSH2 0x266B DUP3 PUSH2 0x1AD5 JUMP JUMPDEST PUSH2 0x2675 DUP2 DUP6 PUSH2 0x2657 JUMP JUMPDEST SWAP4 POP PUSH2 0x2685 DUP2 DUP6 PUSH1 0x20 DUP7 ADD PUSH2 0x1AEF JUMP JUMPDEST DUP1 DUP5 ADD SWAP2 POP POP SWAP3 SWAP2 POP POP JUMP JUMPDEST PUSH0 PUSH2 0x269C DUP3 DUP6 PUSH2 0x2661 JUMP JUMPDEST SWAP2 POP PUSH2 0x26A8 DUP3 DUP5 PUSH2 0x2661 JUMP JUMPDEST SWAP2 POP DUP2 SWAP1 POP SWAP4 SWAP3 POP POP POP JUMP JUMPDEST PUSH0 DUP2 MLOAD SWAP1 POP SWAP2 SWAP1 POP JUMP JUMPDEST PUSH0 DUP3 DUP3 MSTORE PUSH1 0x20 DUP3 ADD SWAP1 POP SWAP3 SWAP2 POP POP JUMP JUMPDEST PUSH0 PUSH2 0x26D8 DUP3 PUSH2 0x26B4 JUMP JUMPDEST PUSH2 0x26E2 DUP2 DUP6 PUSH2 0x26BE JUMP JUMPDEST SWAP4 POP PUSH2 0x26F2 DUP2 DUP6 PUSH1 0x20 DUP7 ADD PUSH2 0x1AEF JUMP JUMPDEST PUSH2 0x26FB DUP2 PUSH2 0x1AFD JUMP JUMPDEST DUP5 ADD SWAP2 POP POP SWAP3 SWAP2 POP POP JUMP JUMPDEST PUSH0 PUSH1 0x80 DUP3 ADD SWAP1 POP PUSH2 0x2719 PUSH0 DUP4 ADD DUP8 PUSH2 0x1BF3 JUMP JUMPDEST PUSH2 0x2726 PUSH1 0x20 DUP4 ADD DUP7 PUSH2 0x1BF3 JUMP JUMPDEST PUSH2 0x2733 PUSH1 0x40 DUP4 ADD DUP6 PUSH2 0x1EF0 JUMP JUMPDEST DUP2 DUP2 SUB PUSH1 0x60 DUP4 ADD MSTORE PUSH2 0x2745 DUP2 DUP5 PUSH2 0x26CE JUMP JUMPDEST SWAP1 POP SWAP6 SWAP5 POP POP POP POP POP JUMP JUMPDEST PUSH0 DUP2 MLOAD SWAP1 POP PUSH2 0x275E DUP2 PUSH2 0x1A4D JUMP JUMPDEST SWAP3 SWAP2 POP POP JUMP JUMPDEST PUSH0 PUSH1 0x20 DUP3 DUP5 SUB SLT ISZERO PUSH2 0x2779 JUMPI PUSH2 0x2778 PUSH2 0x1A1A JUMP JUMPDEST JUMPDEST PUSH0 PUSH2 0x2786 DUP5 DUP3 DUP6 ADD PUSH2 0x2750 JUMP JUMPDEST SWAP2 POP POP SWAP3 SWAP2 POP POP JUMP JUMPDEST PUSH32 0x4E487B7100000000000000000000000000000000000000000000000000000000 PUSH0 MSTORE PUSH1 0x12 PUSH1 0x4 MSTORE PUSH1 0x24 PUSH0 REVERT JUMPDEST PUSH0 PUSH1 0x40 DUP3 ADD SWAP1 POP PUSH2 0x27CF PUSH0 DUP4 ADD DUP6 PUSH2 0x1BF3 JUMP JUMPDEST PUSH2 0x27DC PUSH1 0x20 DUP4 ADD DUP5 PUSH2 0x1EF0 JUMP JUMPDEST SWAP4 SWAP3 POP POP POP JUMP INVALID LOG2 PUSH5 0x6970667358 0x22 SLT KECCAK256 DUP4 PUSH15 0x781F6162DE906835845452CC2E64FC PUSH6 0xF7EBC1332C76 SELFBALANCE 0xA7 0xC7 SDIV JUMPI DUP13 PUSH3 0x636473 PUSH16 0x6C634300081C00330000000000000000 "
		},
		"gasEstimates": {
			"creation": {
				"codeDepositCost": "2053000",
				"executionCost": "infinite",
				"totalCost": "infinite"
			},
			"external": {
				"approve(address,uint256)": "infinite",
				"balanceOf(address)": "infinite",
				"battle(uint256,uint256)": "infinite",
				"createNewPokemon(string,address,string)": "infinite",
				"gameOwner()": "2618",
				"getApproved(uint256)": "infinite",
				"isApprovedForAll(address,address)": "infinite",
				"name()": "infinite",
				"ownerOf(uint256)": "infinite",
				"pokemons(uint256)": "infinite",
				"safeTransferFrom(address,address,uint256)": "infinite",
				"safeTransferFrom(address,address,uint256,bytes)": "infinite",
				"setApprovalForAll(address,bool)": "infinite",
				"supportsInterface(bytes4)": "787",
				"symbol()": "infinite",
				"tokenURI(uint256)": "infinite",
				"transferFrom(address,address,uint256)": "infinite"
			}
		},
		"methodIdentifiers": {
			"approve(address,uint256)": "095ea7b3",
			"balanceOf(address)": "70a08231",
			"battle(uint256,uint256)": "2a0c5221",
			"createNewPokemon(string,address,string)": "555072de",
			"gameOwner()": "f6b12f28",
			"getApproved(uint256)": "081812fc",
			"isApprovedForAll(address,address)": "e985e9c5",
			"name()": "06fdde03",
			"ownerOf(uint256)": "6352211e",
			"pokemons(uint256)": "85831079",
			"safeTransferFrom(address,address,uint256)": "42842e0e",
			"safeTransferFrom(address,address,uint256,bytes)": "b88d4fde",
			"setApprovalForAll(address,bool)": "a22cb465",
			"supportsInterface(bytes4)": "01ffc9a7",
			"symbol()": "95d89b41",
			"tokenURI(uint256)": "c87b56dd",
			"transferFrom(address,address,uint256)": "23b872dd"
		}
	},
	"abi": [
		{
			"inputs": [],
			"stateMutability": "nonpayable",
			"type": "constructor"
		},
		{
			"inputs": [
				{
					"internalType": "address",
					"name": "sender",
					"type": "address"
				},
				{
					"internalType": "uint256",
					"name": "tokenId",
					"type": "uint256"
				},
				{
					"internalType": "address",
					"name": "owner",
					"type": "address"
				}
			],
			"name": "ERC721IncorrectOwner",
			"type": "error"
		},
		{
			"inputs": [
				{
					"internalType": "address",
					"name": "operator",
					"type": "address"
				},
				{
					"internalType": "uint256",
					"name": "tokenId",
					"type": "uint256"
				}
			],
			"name": "ERC721InsufficientApproval",
			"type": "error"
		},
		{
			"inputs": [
				{
					"internalType": "address",
					"name": "approver",
					"type": "address"
				}
			],
			"name": "ERC721InvalidApprover",
			"type": "error"
		},
		{
			"inputs": [
				{
					"internalType": "address",
					"name": "operator",
					"type": "address"
				}
			],
			"name": "ERC721InvalidOperator",
			"type": "error"
		},
		{
			"inputs": [
				{
					"internalType": "address",
					"name": "owner",
					"type": "address"
				}
			],
			"name": "ERC721InvalidOwner",
			"type": "error"
		},
		{
			"inputs": [
				{
					"internalType": "address",
					"name": "receiver",
					"type": "address"
				}
			],
			"name": "ERC721InvalidReceiver",
			"type": "error"
		},
		{
			"inputs": [
				{
					"internalType": "address",
					"name": "sender",
					"type": "address"
				}
			],
			"name": "ERC721InvalidSender",
			"type": "error"
		},
		{
			"inputs": [
				{
					"internalType": "uint256",
					"name": "tokenId",
					"type": "uint256"
				}
			],
			"name": "ERC721NonexistentToken",
			"type": "error"
		},
		{
			"anonymous": false,
			"inputs": [
				{
					"indexed": true,
					"internalType": "address",
					"name": "owner",
					"type": "address"
				},
				{
					"indexed": true,
					"internalType": "address",
					"name": "approved",
					"type": "address"
				},
				{
					"indexed": true,
					"internalType": "uint256",
					"name": "tokenId",
					"type": "uint256"
				}
			],
			"name": "Approval",
			"type": "event"
		},
		{
			"anonymous": false,
			"inputs": [
				{
					"indexed": true,
					"internalType": "address",
					"name": "owner",
					"type": "address"
				},
				{
					"indexed": true,
					"internalType": "address",
					"name": "operator",
					"type": "address"
				},
				{
					"indexed": false,
					"internalType": "bool",
					"name": "approved",
					"type": "bool"
				}
			],
			"name": "ApprovalForAll",
			"type": "event"
		},
		{
			"anonymous": false,
			"inputs": [
				{
					"indexed": true,
					"internalType": "address",
					"name": "from",
					"type": "address"
				},
				{
					"indexed": true,
					"internalType": "address",
					"name": "to",
					"type": "address"
				},
				{
					"indexed": true,
					"internalType": "uint256",
					"name": "tokenId",
					"type": "uint256"
				}
			],
			"name": "Transfer",
			"type": "event"
		},
		{
			"inputs": [
				{
					"internalType": "address",
					"name": "to",
					"type": "address"
				},
				{
					"internalType": "uint256",
					"name": "tokenId",
					"type": "uint256"
				}
			],
			"name": "approve",
			"outputs": [],
			"stateMutability": "nonpayable",
			"type": "function"
		},
		{
			"inputs": [
				{
					"internalType": "address",
					"name": "owner",
					"type": "address"
				}
			],
			"name": "balanceOf",
			"outputs": [
				{
					"internalType": "uint256",
					"name": "",
					"type": "uint256"
				}
			],
			"stateMutability": "view",
			"type": "function"
		},
		{
			"inputs": [
				{
					"internalType": "uint256",
					"name": "_attackingPokemon",
					"type": "uint256"
				},
				{
					"internalType": "uint256",
					"name": "_defendingPokemon",
					"type": "uint256"
				}
			],
			"name": "battle",
			"outputs": [],
			"stateMutability": "nonpayable",
			"type": "function"
		},
		{
			"inputs": [
				{
					"internalType": "string",
					"name": "_name",
					"type": "string"
				},
				{
					"internalType": "address",
					"name": "_to",
					"type": "address"
				},
				{
					"internalType": "string",
					"name": "_img",
					"type": "string"
				}
			],
			"name": "createNewPokemon",
			"outputs": [],
			"stateMutability": "nonpayable",
			"type": "function"
		},
		{
			"inputs": [],
			"name": "gameOwner",
			"outputs": [
				{
					"internalType": "address",
					"name": "",
					"type": "address"
				}
			],
			"stateMutability": "view",
			"type": "function"
		},
		{
			"inputs": [
				{
					"internalType": "uint256",
					"name": "tokenId",
					"type": "uint256"
				}
			],
			"name": "getApproved",
			"outputs": [
				{
					"internalType": "address",
					"name": "",
					"type": "address"
				}
			],
			"stateMutability": "view",
			"type": "function"
		},
		{
			"inputs": [
				{
					"internalType": "address",
					"name": "owner",
					"type": "address"
				},
				{
					"internalType": "address",
					"name": "operator",
					"type": "address"
				}
			],
			"name": "isApprovedForAll",
			"outputs": [
				{
					"internalType": "bool",
					"name": "",
					"type": "bool"
				}
			],
			"stateMutability": "view",
			"type": "function"
		},
		{
			"inputs": [],
			"name": "name",
			"outputs": [
				{
					"internalType": "string",
					"name": "",
					"type": "string"
				}
			],
			"stateMutability": "view",
			"type": "function"
		},
		{
			"inputs": [
				{
					"internalType": "uint256",
					"name": "tokenId",
					"type": "uint256"
				}
			],
			"name": "ownerOf",
			"outputs": [
				{
					"internalType": "address",
					"name": "",
					"type": "address"
				}
			],
			"stateMutability": "view",
			"type": "function"
		},
		{
			"inputs": [
				{
					"internalType": "uint256",
					"name": "",
					"type": "uint256"
				}
			],
			"name": "pokemons",
			"outputs": [
				{
					"internalType": "string",
					"name": "nome",
					"type": "string"
				},
				{
					"internalType": "uint256",
					"name": "level",
					"type": "uint256"
				},
				{
					"internalType": "string",
					"name": "img",
					"type": "string"
				}
			],
			"stateMutability": "view",
			"type": "function"
		},
		{
			"inputs": [
				{
					"internalType": "address",
					"name": "from",
					"type": "address"
				},
				{
					"internalType": "address",
					"name": "to",
					"type": "address"
				},
				{
					"internalType": "uint256",
					"name": "tokenId",
					"type": "uint256"
				}
			],
			"name": "safeTransferFrom",
			"outputs": [],
			"stateMutability": "nonpayable",
			"type": "function"
		},
		{
			"inputs": [
				{
					"internalType": "address",
					"name": "from",
					"type": "address"
				},
				{
					"internalType": "address",
					"name": "to",
					"type": "address"
				},
				{
					"internalType": "uint256",
					"name": "tokenId",
					"type": "uint256"
				},
				{
					"internalType": "bytes",
					"name": "data",
					"type": "bytes"
				}
			],
			"name": "safeTransferFrom",
			"outputs": [],
			"stateMutability": "nonpayable",
			"type": "function"
		},
		{
			"inputs": [
				{
					"internalType": "address",
					"name": "operator",
					"type": "address"
				},
				{
					"internalType": "bool",
					"name": "approved",
					"type": "bool"
				}
			],
			"name": "setApprovalForAll",
			"outputs": [],
			"stateMutability": "nonpayable",
			"type": "function"
		},
		{
			"inputs": [
				{
					"internalType": "bytes4",
					"name": "interfaceId",
					"type": "bytes4"
				}
			],
			"name": "supportsInterface",
			"outputs": [
				{
					"internalType": "bool",
					"name": "",
					"type": "bool"
				}
			],
			"stateMutability": "view",
			"type": "function"
		},
		{
			"inputs": [],
			"name": "symbol",
			"outputs": [
				{
					"internalType": "string",
					"name": "",
					"type": "string"
				}
			],
			"stateMutability": "view",
			"type": "function"
		},
		{
			"inputs": [
				{
					"internalType": "uint256",
					"name": "tokenId",
					"type": "uint256"
				}
			],
			"name": "tokenURI",
			"outputs": [
				{
					"internalType": "string",
					"name": "",
					"type": "string"
				}
			],
			"stateMutability": "view",
			"type": "function"
		},
		{
			"inputs": [
				{
					"internalType": "address",
					"name": "from",
					"type": "address"
				},
				{
					"internalType": "address",
					"name": "to",
					"type": "address"
				},
				{
					"internalType": "uint256",
					"name": "tokenId",
					"type": "uint256"
				}
			],
			"name": "transferFrom",
			"outputs": [],
			"stateMutability": "nonpayable",
			"type": "function"
		}
	]
}